{
  "address": "0x323A76393544d5ecca80cd6ef2A560C6a395b7E3",
  "abi": [
    {
      "inputs": [
        {
          "internalType": "contract ERC20Votes",
          "name": "_token",
          "type": "address"
        },
        {
          "internalType": "contract TimelockController",
          "name": "_timelock",
          "type": "address"
        }
      ],
      "stateMutability": "nonpayable",
      "type": "constructor"
    },
    {
      "anonymous": false,
      "inputs": [
        {
          "indexed": false,
          "internalType": "uint256",
          "name": "proposalId",
          "type": "uint256"
        }
      ],
      "name": "ProposalCanceled",
      "type": "event"
    },
    {
      "anonymous": false,
      "inputs": [
        {
          "indexed": false,
          "internalType": "uint256",
          "name": "proposalId",
          "type": "uint256"
        },
        {
          "indexed": false,
          "internalType": "address",
          "name": "proposer",
          "type": "address"
        },
        {
          "indexed": false,
          "internalType": "address[]",
          "name": "targets",
          "type": "address[]"
        },
        {
          "indexed": false,
          "internalType": "uint256[]",
          "name": "values",
          "type": "uint256[]"
        },
        {
          "indexed": false,
          "internalType": "string[]",
          "name": "signatures",
          "type": "string[]"
        },
        {
          "indexed": false,
          "internalType": "bytes[]",
          "name": "calldatas",
          "type": "bytes[]"
        },
        {
          "indexed": false,
          "internalType": "uint256",
          "name": "startBlock",
          "type": "uint256"
        },
        {
          "indexed": false,
          "internalType": "uint256",
          "name": "endBlock",
          "type": "uint256"
        },
        {
          "indexed": false,
          "internalType": "string",
          "name": "description",
          "type": "string"
        }
      ],
      "name": "ProposalCreated",
      "type": "event"
    },
    {
      "anonymous": false,
      "inputs": [
        {
          "indexed": false,
          "internalType": "uint256",
          "name": "proposalId",
          "type": "uint256"
        }
      ],
      "name": "ProposalExecuted",
      "type": "event"
    },
    {
      "anonymous": false,
      "inputs": [
        {
          "indexed": false,
          "internalType": "uint256",
          "name": "proposalId",
          "type": "uint256"
        },
        {
          "indexed": false,
          "internalType": "uint256",
          "name": "eta",
          "type": "uint256"
        }
      ],
      "name": "ProposalQueued",
      "type": "event"
    },
    {
      "anonymous": false,
      "inputs": [
        {
          "indexed": false,
          "internalType": "uint256",
          "name": "oldQuorumNumerator",
          "type": "uint256"
        },
        {
          "indexed": false,
          "internalType": "uint256",
          "name": "newQuorumNumerator",
          "type": "uint256"
        }
      ],
      "name": "QuorumNumeratorUpdated",
      "type": "event"
    },
    {
      "anonymous": false,
      "inputs": [
        {
          "indexed": false,
          "internalType": "address",
          "name": "oldTimelock",
          "type": "address"
        },
        {
          "indexed": false,
          "internalType": "address",
          "name": "newTimelock",
          "type": "address"
        }
      ],
      "name": "TimelockChange",
      "type": "event"
    },
    {
      "anonymous": false,
      "inputs": [
        {
          "indexed": true,
          "internalType": "address",
          "name": "voter",
          "type": "address"
        },
        {
          "indexed": false,
          "internalType": "uint256",
          "name": "proposalId",
          "type": "uint256"
        },
        {
          "indexed": false,
          "internalType": "uint8",
          "name": "support",
          "type": "uint8"
        },
        {
          "indexed": false,
          "internalType": "uint256",
          "name": "weight",
          "type": "uint256"
        },
        {
          "indexed": false,
          "internalType": "string",
          "name": "reason",
          "type": "string"
        }
      ],
      "name": "VoteCast",
      "type": "event"
    },
    {
      "inputs": [],
      "name": "BALLOT_TYPEHASH",
      "outputs": [
        {
          "internalType": "bytes32",
          "name": "",
          "type": "bytes32"
        }
      ],
      "stateMutability": "view",
      "type": "function"
    },
    {
      "inputs": [],
      "name": "COUNTING_MODE",
      "outputs": [
        {
          "internalType": "string",
          "name": "",
          "type": "string"
        }
      ],
      "stateMutability": "pure",
      "type": "function"
    },
    {
      "inputs": [
        {
          "internalType": "uint256",
          "name": "proposalId",
          "type": "uint256"
        },
        {
          "internalType": "uint8",
          "name": "support",
          "type": "uint8"
        }
      ],
      "name": "castVote",
      "outputs": [
        {
          "internalType": "uint256",
          "name": "",
          "type": "uint256"
        }
      ],
      "stateMutability": "nonpayable",
      "type": "function"
    },
    {
      "inputs": [
        {
          "internalType": "uint256",
          "name": "proposalId",
          "type": "uint256"
        },
        {
          "internalType": "uint8",
          "name": "support",
          "type": "uint8"
        },
        {
          "internalType": "uint8",
          "name": "v",
          "type": "uint8"
        },
        {
          "internalType": "bytes32",
          "name": "r",
          "type": "bytes32"
        },
        {
          "internalType": "bytes32",
          "name": "s",
          "type": "bytes32"
        }
      ],
      "name": "castVoteBySig",
      "outputs": [
        {
          "internalType": "uint256",
          "name": "",
          "type": "uint256"
        }
      ],
      "stateMutability": "nonpayable",
      "type": "function"
    },
    {
      "inputs": [
        {
          "internalType": "uint256",
          "name": "proposalId",
          "type": "uint256"
        },
        {
          "internalType": "uint8",
          "name": "support",
          "type": "uint8"
        },
        {
          "internalType": "string",
          "name": "reason",
          "type": "string"
        }
      ],
      "name": "castVoteWithReason",
      "outputs": [
        {
          "internalType": "uint256",
          "name": "",
          "type": "uint256"
        }
      ],
      "stateMutability": "nonpayable",
      "type": "function"
    },
    {
      "inputs": [
        {
          "internalType": "address[]",
          "name": "targets",
          "type": "address[]"
        },
        {
          "internalType": "uint256[]",
          "name": "values",
          "type": "uint256[]"
        },
        {
          "internalType": "bytes[]",
          "name": "calldatas",
          "type": "bytes[]"
        },
        {
          "internalType": "bytes32",
          "name": "descriptionHash",
          "type": "bytes32"
        }
      ],
      "name": "execute",
      "outputs": [
        {
          "internalType": "uint256",
          "name": "",
          "type": "uint256"
        }
      ],
      "stateMutability": "payable",
      "type": "function"
    },
    {
      "inputs": [
        {
          "internalType": "address",
          "name": "account",
          "type": "address"
        },
        {
          "internalType": "uint256",
          "name": "blockNumber",
          "type": "uint256"
        }
      ],
      "name": "getVotes",
      "outputs": [
        {
          "internalType": "uint256",
          "name": "",
          "type": "uint256"
        }
      ],
      "stateMutability": "view",
      "type": "function"
    },
    {
      "inputs": [
        {
          "internalType": "uint256",
          "name": "proposalId",
          "type": "uint256"
        },
        {
          "internalType": "address",
          "name": "account",
          "type": "address"
        }
      ],
      "name": "hasVoted",
      "outputs": [
        {
          "internalType": "bool",
          "name": "",
          "type": "bool"
        }
      ],
      "stateMutability": "view",
      "type": "function"
    },
    {
      "inputs": [
        {
          "internalType": "address[]",
          "name": "targets",
          "type": "address[]"
        },
        {
          "internalType": "uint256[]",
          "name": "values",
          "type": "uint256[]"
        },
        {
          "internalType": "bytes[]",
          "name": "calldatas",
          "type": "bytes[]"
        },
        {
          "internalType": "bytes32",
          "name": "descriptionHash",
          "type": "bytes32"
        }
      ],
      "name": "hashProposal",
      "outputs": [
        {
          "internalType": "uint256",
          "name": "",
          "type": "uint256"
        }
      ],
      "stateMutability": "pure",
      "type": "function"
    },
    {
      "inputs": [],
      "name": "name",
      "outputs": [
        {
          "internalType": "string",
          "name": "",
          "type": "string"
        }
      ],
      "stateMutability": "view",
      "type": "function"
    },
    {
      "inputs": [
        {
          "internalType": "uint256",
          "name": "proposalId",
          "type": "uint256"
        }
      ],
      "name": "proposalDeadline",
      "outputs": [
        {
          "internalType": "uint256",
          "name": "",
          "type": "uint256"
        }
      ],
      "stateMutability": "view",
      "type": "function"
    },
    {
      "inputs": [
        {
          "internalType": "uint256",
          "name": "proposalId",
          "type": "uint256"
        }
      ],
      "name": "proposalEta",
      "outputs": [
        {
          "internalType": "uint256",
          "name": "",
          "type": "uint256"
        }
      ],
      "stateMutability": "view",
      "type": "function"
    },
    {
      "inputs": [
        {
          "internalType": "uint256",
          "name": "proposalId",
          "type": "uint256"
        }
      ],
      "name": "proposalSnapshot",
      "outputs": [
        {
          "internalType": "uint256",
          "name": "",
          "type": "uint256"
        }
      ],
      "stateMutability": "view",
      "type": "function"
    },
    {
      "inputs": [],
      "name": "proposalThreshold",
      "outputs": [
        {
          "internalType": "uint256",
          "name": "",
          "type": "uint256"
        }
      ],
      "stateMutability": "pure",
      "type": "function"
    },
    {
      "inputs": [
        {
          "internalType": "uint256",
          "name": "proposalId",
          "type": "uint256"
        }
      ],
      "name": "proposalVotes",
      "outputs": [
        {
          "internalType": "uint256",
          "name": "againstVotes",
          "type": "uint256"
        },
        {
          "internalType": "uint256",
          "name": "forVotes",
          "type": "uint256"
        },
        {
          "internalType": "uint256",
          "name": "abstainVotes",
          "type": "uint256"
        }
      ],
      "stateMutability": "view",
      "type": "function"
    },
    {
      "inputs": [
        {
          "internalType": "address[]",
          "name": "targets",
          "type": "address[]"
        },
        {
          "internalType": "uint256[]",
          "name": "values",
          "type": "uint256[]"
        },
        {
          "internalType": "bytes[]",
          "name": "calldatas",
          "type": "bytes[]"
        },
        {
          "internalType": "string",
          "name": "description",
          "type": "string"
        }
      ],
      "name": "propose",
      "outputs": [
        {
          "internalType": "uint256",
          "name": "",
          "type": "uint256"
        }
      ],
      "stateMutability": "nonpayable",
      "type": "function"
    },
    {
      "inputs": [
        {
          "internalType": "address[]",
          "name": "targets",
          "type": "address[]"
        },
        {
          "internalType": "uint256[]",
          "name": "values",
          "type": "uint256[]"
        },
        {
          "internalType": "bytes[]",
          "name": "calldatas",
          "type": "bytes[]"
        },
        {
          "internalType": "bytes32",
          "name": "descriptionHash",
          "type": "bytes32"
        }
      ],
      "name": "queue",
      "outputs": [
        {
          "internalType": "uint256",
          "name": "",
          "type": "uint256"
        }
      ],
      "stateMutability": "nonpayable",
      "type": "function"
    },
    {
      "inputs": [
        {
          "internalType": "uint256",
          "name": "blockNumber",
          "type": "uint256"
        }
      ],
      "name": "quorum",
      "outputs": [
        {
          "internalType": "uint256",
          "name": "",
          "type": "uint256"
        }
      ],
      "stateMutability": "view",
      "type": "function"
    },
    {
      "inputs": [],
      "name": "quorumDenominator",
      "outputs": [
        {
          "internalType": "uint256",
          "name": "",
          "type": "uint256"
        }
      ],
      "stateMutability": "pure",
      "type": "function"
    },
    {
      "inputs": [],
      "name": "quorumNumerator",
      "outputs": [
        {
          "internalType": "uint256",
          "name": "",
          "type": "uint256"
        }
      ],
      "stateMutability": "view",
      "type": "function"
    },
    {
      "inputs": [
        {
          "internalType": "uint256",
          "name": "proposalId",
          "type": "uint256"
        }
      ],
      "name": "state",
      "outputs": [
        {
          "internalType": "enum IGovernor.ProposalState",
          "name": "",
          "type": "uint8"
        }
      ],
      "stateMutability": "view",
      "type": "function"
    },
    {
      "inputs": [
        {
          "internalType": "bytes4",
          "name": "interfaceId",
          "type": "bytes4"
        }
      ],
      "name": "supportsInterface",
      "outputs": [
        {
          "internalType": "bool",
          "name": "",
          "type": "bool"
        }
      ],
      "stateMutability": "view",
      "type": "function"
    },
    {
      "inputs": [],
      "name": "timelock",
      "outputs": [
        {
          "internalType": "address",
          "name": "",
          "type": "address"
        }
      ],
      "stateMutability": "view",
      "type": "function"
    },
    {
      "inputs": [],
      "name": "token",
      "outputs": [
        {
          "internalType": "contract ERC20Votes",
          "name": "",
          "type": "address"
        }
      ],
      "stateMutability": "view",
      "type": "function"
    },
    {
      "inputs": [
        {
          "internalType": "uint256",
          "name": "newQuorumNumerator",
          "type": "uint256"
        }
      ],
      "name": "updateQuorumNumerator",
      "outputs": [],
      "stateMutability": "nonpayable",
      "type": "function"
    },
    {
      "inputs": [
        {
          "internalType": "contract TimelockController",
          "name": "newTimelock",
          "type": "address"
        }
      ],
      "name": "updateTimelock",
      "outputs": [],
      "stateMutability": "nonpayable",
      "type": "function"
    },
    {
      "inputs": [],
      "name": "version",
      "outputs": [
        {
          "internalType": "string",
          "name": "",
          "type": "string"
        }
      ],
      "stateMutability": "view",
      "type": "function"
    },
    {
      "inputs": [],
      "name": "votingDelay",
      "outputs": [
        {
          "internalType": "uint256",
          "name": "",
          "type": "uint256"
        }
      ],
      "stateMutability": "pure",
      "type": "function"
    },
    {
      "inputs": [],
      "name": "votingPeriod",
      "outputs": [
        {
          "internalType": "uint256",
          "name": "",
          "type": "uint256"
        }
      ],
      "stateMutability": "pure",
      "type": "function"
    }
  ],
  "transactionHash": "0x97cba35bb5b36409dc31f22f2cb31d0f947bd8d1145093f9a785aefa525fe269",
  "args": [
    "0xC18360217D8F7Ab5e7c516566761Ea12Ce7F9D72",
    "0xFe89cc7aBB2C4183683ab71653C4cdc9B02D44b7"
  ],
  "solcInputHash": "663078e3b2c4926632082f376a43cc4a",
  "bytecode": "0x6101406040523480156200001257600080fd5b5060405162004f9538038062004f95833981810160405281019062000038919062000423565b806064836040518060400160405280600c81526020017f454e5320476f7665726e6f72000000000000000000000000000000000000000081525080620000836200017f60201b60201c565b60008280519060200120905060008280519060200120905060007f8b73c3c69bb8fe3d512ecc4cf759cc79239f7b179b0ffacaa9a75d522b39400f90508260c081815250508160e081815250504660a08181525050620000eb818484620001bc60201b60201c565b60808181525050806101008181525050505050505080600090805190602001906200011892919062000345565b50508073ffffffffffffffffffffffffffffffffffffffff166101208173ffffffffffffffffffffffffffffffffffffffff1660601b81525050506200016481620001f860201b60201c565b5062000176816200029a60201b60201c565b50505062000745565b60606040518060400160405280600181526020017f3100000000000000000000000000000000000000000000000000000000000000815250905090565b60008383834630604051602001620001d9959493929190620004f1565b6040516020818303038152906040528051906020012090509392505050565b620002086200033b60201b60201c565b8111156200024d576040517f08c379a000000000000000000000000000000000000000000000000000000000815260040162000244906200054e565b60405180910390fd5b60006003549050816003819055507f0553476bf02ef2726e8ce5ced78d63e26e602e4a2257b1f559418e24b463399781836040516200028e92919062000570565b60405180910390a15050565b7f08f74ea46ef7894f65eabfb5e6e695de773a000b47c529ab559178069b226401600460009054906101000a900473ffffffffffffffffffffffffffffffffffffffff1682604051620002ef929190620004c4565b60405180910390a180600460006101000a81548173ffffffffffffffffffffffffffffffffffffffff021916908373ffffffffffffffffffffffffffffffffffffffff16021790555050565b6000612710905090565b828054620003539062000632565b90600052602060002090601f016020900481019282620003775760008555620003c3565b82601f106200039257805160ff1916838001178555620003c3565b82800160010185558215620003c3579182015b82811115620003c2578251825591602001919060010190620003a5565b5b509050620003d29190620003d6565b5090565b5b80821115620003f1576000816000905550600101620003d7565b5090565b600081519050620004068162000711565b92915050565b6000815190506200041d816200072b565b92915050565b600080604083850312156200043d576200043c62000697565b5b60006200044d85828601620003f5565b925050602062000460858286016200040c565b9150509250929050565b6200047581620005ae565b82525050565b6200048681620005d6565b82525050565b60006200049b6043836200059d565b9150620004a8826200069c565b606082019050919050565b620004be8162000628565b82525050565b6000604082019050620004db60008301856200046a565b620004ea60208301846200046a565b9392505050565b600060a0820190506200050860008301886200047b565b6200051760208301876200047b565b6200052660408301866200047b565b620005356060830185620004b3565b6200054460808301846200046a565b9695505050505050565b6000602082019050818103600083015262000569816200048c565b9050919050565b6000604082019050620005876000830185620004b3565b620005966020830184620004b3565b9392505050565b600082825260208201905092915050565b6000620005bb8262000608565b9050919050565b6000620005cf8262000608565b9050919050565b6000819050919050565b6000620005ed82620005ae565b9050919050565b60006200060182620005c2565b9050919050565b600073ffffffffffffffffffffffffffffffffffffffff82169050919050565b6000819050919050565b600060028204905060018216806200064b57607f821691505b6020821081141562000662576200066162000668565b5b50919050565b7f4e487b7100000000000000000000000000000000000000000000000000000000600052602260045260246000fd5b600080fd5b7f476f7665726e6f72566f74657351756f72756d4672616374696f6e3a2071756f60008201527f72756d4e756d657261746f72206f7665722071756f72756d44656e6f6d696e6160208201527f746f720000000000000000000000000000000000000000000000000000000000604082015250565b6200071c81620005e0565b81146200072857600080fd5b50565b6200073681620005f4565b81146200074257600080fd5b50565b60805160a05160c05160e051610100516101205160601c6147ef620007a660003960008181611283015281816117d7015261189c01526000611af701526000611b3901526000611b1801526000611aa401526000611acc01526147ef6000f3fe6080604052600436106101c25760003560e01c80637b3c71d3116100f7578063c01f9e3711610095578063deaaa7cc11610064578063deaaa7cc146106e7578063eb9019d414610712578063f8ce560a1461074f578063fc0c546a1461078c576101c2565b8063c01f9e3714610617578063c59057e414610654578063d33219b414610691578063dd4e2ba5146106bc576101c2565b8063a7713a70116100d1578063a7713a701461055b578063a890c91014610586578063ab58fb8e146105af578063b58131b0146105ec576101c2565b80637b3c71d3146104b65780637d5e81e2146104f357806397c3d33414610530576101c2565b80633932abb111610164578063438596321161013e57806343859632146103d2578063544ffc9c1461040f57806354fd4d501461044e5780635678138814610479576101c2565b80633932abb11461032d5780633bccf4fd146103585780633e4f49e614610395576101c2565b806306fdde03116101a057806306fdde0314610258578063160cbed7146102835780632656227d146102c05780632d63f693146102f0576101c2565b806301ffc9a7146101c757806302a251a31461020457806306f3f9e61461022f575b600080fd5b3480156101d357600080fd5b506101ee60048036038101906101e99190612d12565b6107b7565b6040516101fb91906136c9565b60405180910390f35b34801561021057600080fd5b506102196107c9565b6040516102269190613a26565b60405180910390f35b34801561023b57600080fd5b5061025660048036038101906102519190612d6c565b6107d3565b005b34801561026457600080fd5b5061026d61085b565b60405161027a9190613804565b60405180910390f35b34801561028f57600080fd5b506102aa60048036038101906102a59190612b26565b6108ed565b6040516102b79190613a26565b60405180910390f35b6102da60048036038101906102d59190612b26565b610bc5565b6040516102e79190613a26565b60405180910390f35b3480156102fc57600080fd5b5061031760048036038101906103129190612d6c565b610cf8565b6040516103249190613a26565b60405180910390f35b34801561033957600080fd5b50610342610d66565b60405161034f9190613a26565b60405180910390f35b34801561036457600080fd5b5061037f600480360381019061037a9190612eba565b610d6f565b60405161038c9190613a26565b60405180910390f35b3480156103a157600080fd5b506103bc60048036038101906103b79190612d6c565b610df9565b6040516103c991906137e9565b60405180910390f35b3480156103de57600080fd5b506103f960048036038101906103f49190612dc6565b610e0b565b60405161040691906136c9565b60405180910390f35b34801561041b57600080fd5b5061043660048036038101906104319190612d6c565b610e76565b60405161044593929190613b1a565b60405180910390f35b34801561045a57600080fd5b50610463610eae565b6040516104709190613804565b60405180910390f35b34801561048557600080fd5b506104a0600480360381019061049b9190612e06565b610eeb565b6040516104ad9190613a26565b60405180910390f35b3480156104c257600080fd5b506104dd60048036038101906104d89190612e46565b610f1c565b6040516104ea9190613a26565b60405180910390f35b3480156104ff57600080fd5b5061051a60048036038101906105159190612be1565b610f84565b6040516105279190613a26565b60405180910390f35b34801561053c57600080fd5b50610545610f9c565b6040516105529190613a26565b60405180910390f35b34801561056757600080fd5b50610570610fa6565b60405161057d9190613a26565b60405180910390f35b34801561059257600080fd5b506105ad60048036038101906105a89190612d3f565b610fb0565b005b3480156105bb57600080fd5b506105d660048036038101906105d19190612d6c565b611038565b6040516105e39190613a26565b60405180910390f35b3480156105f857600080fd5b50610601611114565b60405161060e9190613a26565b60405180910390f35b34801561062357600080fd5b5061063e60048036038101906106399190612d6c565b611126565b60405161064b9190613a26565b60405180910390f35b34801561066057600080fd5b5061067b60048036038101906106769190612b26565b611194565b6040516106889190613a26565b60405180910390f35b34801561069d57600080fd5b506106a66111d0565b6040516106b39190613524565b60405180910390f35b3480156106c857600080fd5b506106d16111fa565b6040516106de9190613804565b60405180910390f35b3480156106f357600080fd5b506106fc611237565b60405161070991906136e4565b60405180910390f35b34801561071e57600080fd5b5061073960048036038101906107349190612ae6565b61125b565b6040516107469190613a26565b60405180910390f35b34801561075b57600080fd5b5061077660048036038101906107719190612d6c565b61126f565b6040516107839190613a26565b60405180910390f35b34801561079857600080fd5b506107a1611281565b6040516107ae91906137ce565b60405180910390f35b60006107c2826112a5565b9050919050565b600061b2fa905090565b6107db61131f565b73ffffffffffffffffffffffffffffffffffffffff166107f961132e565b73ffffffffffffffffffffffffffffffffffffffff161461084f576040517f08c379a000000000000000000000000000000000000000000000000000000000815260040161084690613846565b60405180910390fd5b61085881611336565b50565b60606000805461086a906140c9565b80601f0160208091040260200160405190810160405280929190818152602001828054610896906140c9565b80156108e35780601f106108b8576101008083540402835291602001916108e3565b820191906000526020600020905b8154815290600101906020018083116108c657829003601f168201915b5050505050905090565b6000806108fc86868686611194565b90506004600781111561091257610911614194565b5b61091b82610df9565b600781111561092d5761092c614194565b5b1461096d576040517f08c379a0000000000000000000000000000000000000000000000000000000008152600401610964906139a6565b60405180910390fd5b6000600460009054906101000a900473ffffffffffffffffffffffffffffffffffffffff1673ffffffffffffffffffffffffffffffffffffffff1663f27a0c926040518163ffffffff1660e01b815260040160206040518083038186803b1580156109d757600080fd5b505afa1580156109eb573d6000803e3d6000fd5b505050506040513d601f19601f82011682018060405250810190610a0f9190612d99565b9050600460009054906101000a900473ffffffffffffffffffffffffffffffffffffffff1673ffffffffffffffffffffffffffffffffffffffff1663b1c5f4278888886000896040518663ffffffff1660e01b8152600401610a759594939291906135eb565b60206040518083038186803b158015610a8d57600080fd5b505afa158015610aa1573d6000803e3d6000fd5b505050506040513d601f19601f82011682018060405250810190610ac59190612ce5565b6005600084815260200190815260200160002081905550600460009054906101000a900473ffffffffffffffffffffffffffffffffffffffff1673ffffffffffffffffffffffffffffffffffffffff16638f2a0bb0888888600089876040518763ffffffff1660e01b8152600401610b4296959493929190613653565b600060405180830381600087803b158015610b5c57600080fd5b505af1158015610b70573d6000803e3d6000fd5b505050507f9a2e42fd6722813d69113e7d0079d3d940171428df7373df9c7f7617cfda2892828242610ba29190613de0565b604051610bb0929190613af1565b60405180910390a18192505050949350505050565b600080610bd486868686611194565b90506000610be182610df9565b905060046007811115610bf757610bf6614194565b5b816007811115610c0a57610c09614194565b5b1480610c3a575060056007811115610c2557610c24614194565b5b816007811115610c3857610c37614194565b5b145b610c79576040517f08c379a0000000000000000000000000000000000000000000000000000000008152600401610c70906139a6565b60405180910390fd5b600180600084815260200190815260200160002060020160006101000a81548160ff0219169083151502179055507f712ae1383f79ac853f8d882153778e0260ef8f03b504e2866e0593e04d2b291f82604051610cd69190613a26565b60405180910390a1610ceb82888888886113cb565b8192505050949350505050565b6000610d55600160008481526020019081526020016000206000016040518060200160405290816000820160009054906101000a900467ffffffffffffffff1667ffffffffffffffff1667ffffffffffffffff16815250506113df565b67ffffffffffffffff169050919050565b60006001905090565b600080610dd0610dc87f150214d74d59b7d1e90c73fc22ef3d991dd0a76b046543d4d80ab92d2a50328f8989604051602001610dad93929190613752565b604051602081830303815290604052805190602001206113ed565b868686611407565b9050610ded87828860405180602001604052806000815250611432565b91505095945050505050565b6000610e0482611586565b9050919050565b60006002600084815260200190815260200160002060030160008373ffffffffffffffffffffffffffffffffffffffff1673ffffffffffffffffffffffffffffffffffffffff16815260200190815260200160002060009054906101000a900460ff16905092915050565b600080600080600260008681526020019081526020016000209050806000015481600101548260020154935093509350509193909250565b60606040518060400160405280600181526020017f3100000000000000000000000000000000000000000000000000000000000000815250905090565b600080610ef661132e565b9050610f1384828560405180602001604052806000815250611432565b91505092915050565b600080610f2761132e565b9050610f7986828787878080601f016020809104026020016040519081016040528093929190818152602001838380828437600081840152601f19601f82011690508083019250505050505050611432565b915050949350505050565b6000610f92858585856116bd565b9050949350505050565b6000612710905090565b6000600354905090565b610fb861131f565b73ffffffffffffffffffffffffffffffffffffffff16610fd661132e565b73ffffffffffffffffffffffffffffffffffffffff161461102c576040517f08c379a000000000000000000000000000000000000000000000000000000000815260040161102390613846565b60405180910390fd5b61103581611734565b50565b600080600460009054906101000a900473ffffffffffffffffffffffffffffffffffffffff1673ffffffffffffffffffffffffffffffffffffffff1663d45c443560056000868152602001908152602001600020546040518263ffffffff1660e01b81526004016110a991906136e4565b60206040518083038186803b1580156110c157600080fd5b505afa1580156110d5573d6000803e3d6000fd5b505050506040513d601f19601f820116820180604052508101906110f99190612d99565b905060018114611109578061110c565b60005b915050919050565b600069152d02c7e14af6800000905090565b6000611183600160008481526020019081526020016000206001016040518060200160405290816000820160009054906101000a900467ffffffffffffffff1667ffffffffffffffff1667ffffffffffffffff16815250506113df565b67ffffffffffffffff169050919050565b6000848484846040516020016111ad9493929190613591565b6040516020818303038152906040528051906020012060001c9050949350505050565b6000600460009054906101000a900473ffffffffffffffffffffffffffffffffffffffff16905090565b60606040518060400160405280602081526020017f737570706f72743d627261766f2671756f72756d3d666f722c6162737461696e815250905090565b7f150214d74d59b7d1e90c73fc22ef3d991dd0a76b046543d4d80ab92d2a50328f81565b600061126783836117d3565b905092915050565b600061127a82611888565b9050919050565b7f000000000000000000000000000000000000000000000000000000000000000081565b60007f6e665ced000000000000000000000000000000000000000000000000000000007bffffffffffffffffffffffffffffffffffffffffffffffffffffffff1916827bffffffffffffffffffffffffffffffffffffffffffffffffffffffff1916148061131857506113178261195e565b5b9050919050565b60006113296119d8565b905090565b600033905090565b61133e610f9c565b811115611380576040517f08c379a000000000000000000000000000000000000000000000000000000000815260040161137790613866565b60405180910390fd5b60006003549050816003819055507f0553476bf02ef2726e8ce5ced78d63e26e602e4a2257b1f559418e24b463399781836040516113bf929190613af1565b60405180910390a15050565b6113d88585858585611a02565b5050505050565b600081600001519050919050565b60006114006113fa611aa0565b83611b63565b9050919050565b600080600061141887878787611b96565b9150915061142581611ca3565b8192505050949350505050565b6000806001600087815260200190815260200160002090506001600781111561145e5761145d614194565b5b61146787610df9565b600781111561147957611478614194565b5b146114b9576040517f08c379a00000000000000000000000000000000000000000000000000000000081526004016114b090613926565b60405180910390fd5b600061151786611508846000016040518060200160405290816000820160009054906101000a900467ffffffffffffffff1667ffffffffffffffff1667ffffffffffffffff16815250506113df565b67ffffffffffffffff1661125b565b905061152587878784611e78565b8573ffffffffffffffffffffffffffffffffffffffff167fb8e138887d0aa13bab447e82de9d5c1777041ecd21ca36ba824ff1e6c07ddda4888784886040516115719493929190613b51565b60405180910390a28092505050949350505050565b6000806115928361207e565b9050600460078111156115a8576115a7614194565b5b8160078111156115bb576115ba614194565b5b146115c957809150506116b8565b6000600560008581526020019081526020016000205490506000801b8114156115f65781925050506116b8565b600460009054906101000a900473ffffffffffffffffffffffffffffffffffffffff1673ffffffffffffffffffffffffffffffffffffffff16632ab0f529826040518263ffffffff1660e01b815260040161165191906136e4565b60206040518083038186803b15801561166957600080fd5b505afa15801561167d573d6000803e3d6000fd5b505050506040513d601f19601f820116820180604052508101906116a19190612cb8565b156116b1576007925050506116b8565b6005925050505b919050565b60006116c7611114565b6116dd336001436116d89190613eff565b61125b565b101561171e576040517f08c379a000000000000000000000000000000000000000000000000000000000815260040161171590613886565b60405180910390fd5b61172a85858585612245565b9050949350505050565b7f08f74ea46ef7894f65eabfb5e6e695de773a000b47c529ab559178069b226401600460009054906101000a900473ffffffffffffffffffffffffffffffffffffffff168260405161178792919061353f565b60405180910390a180600460006101000a81548173ffffffffffffffffffffffffffffffffffffffff021916908373ffffffffffffffffffffffffffffffffffffffff16021790555050565b60007f000000000000000000000000000000000000000000000000000000000000000073ffffffffffffffffffffffffffffffffffffffff16633a46b1a884846040518363ffffffff1660e01b8152600401611830929190613568565b60206040518083038186803b15801561184857600080fd5b505afa15801561185c573d6000803e3d6000fd5b505050506040513d601f19601f820116820180604052508101906118809190612d99565b905092915050565b6000611892610f9c565b61189a610fa6565b7f000000000000000000000000000000000000000000000000000000000000000073ffffffffffffffffffffffffffffffffffffffff16638e539e8c856040518263ffffffff1660e01b81526004016118f39190613a26565b60206040518083038186803b15801561190b57600080fd5b505afa15801561191f573d6000803e3d6000fd5b505050506040513d601f19601f820116820180604052508101906119439190612d99565b61194d9190613ea5565b6119579190613e74565b9050919050565b60007fbf26d897000000000000000000000000000000000000000000000000000000007bffffffffffffffffffffffffffffffffffffffffffffffffffffffff1916827bffffffffffffffffffffffffffffffffffffffffffffffffffffffff191614806119d157506119d0826124e5565b5b9050919050565b6000600460009054906101000a900473ffffffffffffffffffffffffffffffffffffffff16905090565b600460009054906101000a900473ffffffffffffffffffffffffffffffffffffffff1673ffffffffffffffffffffffffffffffffffffffff1663e38335e5348686866000876040518763ffffffff1660e01b8152600401611a679594939291906135eb565b6000604051808303818588803b158015611a8057600080fd5b505af1158015611a94573d6000803e3d6000fd5b50505050505050505050565b60007f0000000000000000000000000000000000000000000000000000000000000000461415611af2577f00000000000000000000000000000000000000000000000000000000000000009050611b60565b611b5d7f00000000000000000000000000000000000000000000000000000000000000007f00000000000000000000000000000000000000000000000000000000000000007f000000000000000000000000000000000000000000000000000000000000000061254f565b90505b90565b60008282604051602001611b789291906134ed565b60405160208183030381529060405280519060200120905092915050565b6000807f7fffffffffffffffffffffffffffffff5d576e7357a4501ddfe92f46681b20a08360001c1115611bd1576000600391509150611c9a565b601b8560ff1614158015611be95750601c8560ff1614155b15611bfb576000600491509150611c9a565b600060018787878760405160008152602001604052604051611c209493929190613789565b6020604051602081039080840390855afa158015611c42573d6000803e3d6000fd5b505050602060405103519050600073ffffffffffffffffffffffffffffffffffffffff168173ffffffffffffffffffffffffffffffffffffffff161415611c9157600060019250925050611c9a565b80600092509250505b94509492505050565b60006004811115611cb757611cb6614194565b5b816004811115611cca57611cc9614194565b5b1415611cd557611e75565b60016004811115611ce957611ce8614194565b5b816004811115611cfc57611cfb614194565b5b1415611d3d576040517f08c379a0000000000000000000000000000000000000000000000000000000008152600401611d3490613826565b60405180910390fd5b60026004811115611d5157611d50614194565b5b816004811115611d6457611d63614194565b5b1415611da5576040517f08c379a0000000000000000000000000000000000000000000000000000000008152600401611d9c906138a6565b60405180910390fd5b60036004811115611db957611db8614194565b5b816004811115611dcc57611dcb614194565b5b1415611e0d576040517f08c379a0000000000000000000000000000000000000000000000000000000008152600401611e04906138e6565b60405180910390fd5b600480811115611e2057611e1f614194565b5b816004811115611e3357611e32614194565b5b1415611e74576040517f08c379a0000000000000000000000000000000000000000000000000000000008152600401611e6b90613966565b60405180910390fd5b5b50565b60006002600086815260200190815260200160002090508060030160008573ffffffffffffffffffffffffffffffffffffffff1673ffffffffffffffffffffffffffffffffffffffff16815260200190815260200160002060009054906101000a900460ff1615611f1e576040517f08c379a0000000000000000000000000000000000000000000000000000000008152600401611f1590613906565b60405180910390fd5b60018160030160008673ffffffffffffffffffffffffffffffffffffffff1673ffffffffffffffffffffffffffffffffffffffff16815260200190815260200160002060006101000a81548160ff02191690831515021790555060006002811115611f8c57611f8b614194565b5b60ff168360ff161415611fb95781816000016000828254611fad9190613de0565b92505081905550612077565b60016002811115611fcd57611fcc614194565b5b60ff168360ff161415611ffa5781816001016000828254611fee9190613de0565b92505081905550612076565b60028081111561200d5761200c614194565b5b60ff168360ff16141561203a578181600201600082825461202e9190613de0565b92505081905550612075565b6040517f08c379a000000000000000000000000000000000000000000000000000000000815260040161206c906139e6565b60405180910390fd5b5b5b5050505050565b60008060016000848152602001908152602001600020604051806080016040529081600082016040518060200160405290816000820160009054906101000a900467ffffffffffffffff1667ffffffffffffffff1667ffffffffffffffff16815250508152602001600182016040518060200160405290816000820160009054906101000a900467ffffffffffffffff1667ffffffffffffffff1667ffffffffffffffff168152505081526020016002820160009054906101000a900460ff161515151581526020016002820160019054906101000a900460ff1615151515815250509050806040015115612177576007915050612240565b80606001511561218b576002915050612240565b6121988160000151612589565b156121a7576000915050612240565b6121b48160200151612589565b156121c3576001915050612240565b6121d081602001516125a3565b15612205576121de836125cf565b80156121ef57506121ee83612616565b5b6121fa5760036121fd565b60045b915050612240565b6040517f08c379a0000000000000000000000000000000000000000000000000000000008152600401612237906139c6565b60405180910390fd5b919050565b60008061225b8686868680519060200120611194565b905084518651146122a1576040517f08c379a0000000000000000000000000000000000000000000000000000000008152600401612298906138c6565b60405180910390fd5b83518651146122e5576040517f08c379a00000000000000000000000000000000000000000000000000000000081526004016122dc906138c6565b60405180910390fd5b6000865111612329576040517f08c379a000000000000000000000000000000000000000000000000000000000815260040161232090613946565b60405180910390fd5b6000600160008381526020019081526020016000209050612389816000016040518060200160405290816000820160009054906101000a900467ffffffffffffffff1667ffffffffffffffff1667ffffffffffffffff1681525050612641565b6123c8576040517f08c379a00000000000000000000000000000000000000000000000000000000081526004016123bf90613a06565b60405180910390fd5b60006123da6123d5610d66565b61265b565b6123e34361265b565b6123ed9190613e36565b905060006124016123fc6107c9565b61265b565b8261240c9190613e36565b905061242482846000016126b290919063ffffffff16565b61243a81846001016126b290919063ffffffff16565b7f7d84a6263ae0d98d3329bd7b46bb4e8d6f98cd35a7adb45c274c8b7fd5ebd5e08461246461132e565b8b8b8d5167ffffffffffffffff811115612481576124806141f2565b5b6040519080825280602002602001820160405280156124b457816020015b606081526020019060019003908161249f5790505b508c88888e6040516124ce99989796959493929190613a41565b60405180910390a183945050505050949350505050565b60007f01ffc9a7000000000000000000000000000000000000000000000000000000007bffffffffffffffffffffffffffffffffffffffffffffffffffffffff1916827bffffffffffffffffffffffffffffffffffffffffffffffffffffffff1916149050919050565b6000838383463060405160200161256a9594939291906136ff565b6040516020818303038152906040528051906020012090509392505050565b600043826000015167ffffffffffffffff16119050919050565b60006125ae826126e1565b80156125c8575043826000015167ffffffffffffffff1611155b9050919050565b600080600260008481526020019081526020016000209050806002015481600101546125fb9190613de0565b61260c61260785610cf8565b61126f565b1115915050919050565b6000806002600084815260200190815260200160002090508060000154816001015411915050919050565b600080826000015167ffffffffffffffff16149050919050565b600067ffffffffffffffff80168211156126aa576040517f08c379a00000000000000000000000000000000000000000000000000000000081526004016126a190613986565b60405180910390fd5b819050919050565b808260000160006101000a81548167ffffffffffffffff021916908367ffffffffffffffff1602179055505050565b600080826000015167ffffffffffffffff16119050919050565b600061270e61270984613bc2565b613b9d565b905080838252602082019050828560208602820111156127315761273061422b565b5b60005b85811015612761578161274788826128ed565b845260208401935060208301925050600181019050612734565b5050509392505050565b600061277e61277984613bee565b613b9d565b905080838252602082019050828560208602820111156127a1576127a061422b565b5b60005b858110156127ef57813567ffffffffffffffff8111156127c7576127c6614226565b5b8086016127d489826129e0565b855260208501945060208401935050506001810190506127a4565b5050509392505050565b600061280c61280784613c1a565b613b9d565b9050808382526020820190508285602086028201111561282f5761282e61422b565b5b60005b8581101561285f57816128458882612aa7565b845260208401935060208301925050600181019050612832565b5050509392505050565b600061287c61287784613c46565b613b9d565b90508281526020810184848401111561289857612897614230565b5b6128a3848285614087565b509392505050565b60006128be6128b984613c77565b613b9d565b9050828152602081018484840111156128da576128d9614230565b5b6128e5848285614087565b509392505050565b6000813590506128fc81614718565b92915050565b600082601f83011261291757612916614226565b5b81356129278482602086016126fb565b91505092915050565b600082601f83011261294557612944614226565b5b813561295584826020860161276b565b91505092915050565b600082601f83011261297357612972614226565b5b81356129838482602086016127f9565b91505092915050565b60008151905061299b8161472f565b92915050565b6000813590506129b081614746565b92915050565b6000815190506129c581614746565b92915050565b6000813590506129da8161475d565b92915050565b600082601f8301126129f5576129f4614226565b5b8135612a05848260208601612869565b91505092915050565b600081359050612a1d81614774565b92915050565b60008083601f840112612a3957612a38614226565b5b8235905067ffffffffffffffff811115612a5657612a55614221565b5b602083019150836001820283011115612a7257612a7161422b565b5b9250929050565b600082601f830112612a8e57612a8d614226565b5b8135612a9e8482602086016128ab565b91505092915050565b600081359050612ab68161478b565b92915050565b600081519050612acb8161478b565b92915050565b600081359050612ae0816147a2565b92915050565b60008060408385031215612afd57612afc61423a565b5b6000612b0b858286016128ed565b9250506020612b1c85828601612aa7565b9150509250929050565b60008060008060808587031215612b4057612b3f61423a565b5b600085013567ffffffffffffffff811115612b5e57612b5d614235565b5b612b6a87828801612902565b945050602085013567ffffffffffffffff811115612b8b57612b8a614235565b5b612b978782880161295e565b935050604085013567ffffffffffffffff811115612bb857612bb7614235565b5b612bc487828801612930565b9250506060612bd5878288016129a1565b91505092959194509250565b60008060008060808587031215612bfb57612bfa61423a565b5b600085013567ffffffffffffffff811115612c1957612c18614235565b5b612c2587828801612902565b945050602085013567ffffffffffffffff811115612c4657612c45614235565b5b612c528782880161295e565b935050604085013567ffffffffffffffff811115612c7357612c72614235565b5b612c7f87828801612930565b925050606085013567ffffffffffffffff811115612ca057612c9f614235565b5b612cac87828801612a79565b91505092959194509250565b600060208284031215612cce57612ccd61423a565b5b6000612cdc8482850161298c565b91505092915050565b600060208284031215612cfb57612cfa61423a565b5b6000612d09848285016129b6565b91505092915050565b600060208284031215612d2857612d2761423a565b5b6000612d36848285016129cb565b91505092915050565b600060208284031215612d5557612d5461423a565b5b6000612d6384828501612a0e565b91505092915050565b600060208284031215612d8257612d8161423a565b5b6000612d9084828501612aa7565b91505092915050565b600060208284031215612daf57612dae61423a565b5b6000612dbd84828501612abc565b91505092915050565b60008060408385031215612ddd57612ddc61423a565b5b6000612deb85828601612aa7565b9250506020612dfc858286016128ed565b9150509250929050565b60008060408385031215612e1d57612e1c61423a565b5b6000612e2b85828601612aa7565b9250506020612e3c85828601612ad1565b9150509250929050565b60008060008060608587031215612e6057612e5f61423a565b5b6000612e6e87828801612aa7565b9450506020612e7f87828801612ad1565b935050604085013567ffffffffffffffff811115612ea057612e9f614235565b5b612eac87828801612a23565b925092505092959194509250565b600080600080600060a08688031215612ed657612ed561423a565b5b6000612ee488828901612aa7565b9550506020612ef588828901612ad1565b9450506040612f0688828901612ad1565b9350506060612f17888289016129a1565b9250506080612f28888289016129a1565b9150509295509295909350565b6000612f418383612f8d565b60208301905092915050565b6000612f598383613186565b905092915050565b6000612f6d83836131ec565b905092915050565b6000612f8183836134b1565b60208301905092915050565b612f9681613f33565b82525050565b612fa581613f33565b82525050565b6000612fb682613ce8565b612fc08185613d5e565b9350612fcb83613ca8565b8060005b83811015612ffc578151612fe38882612f35565b9750612fee83613d2a565b925050600181019050612fcf565b5085935050505092915050565b600061301482613cf3565b61301e8185613d6f565b93508360208202850161303085613cb8565b8060005b8581101561306c578484038952815161304d8582612f4d565b945061305883613d37565b925060208a01995050600181019050613034565b50829750879550505050505092915050565b600061308982613cfe565b6130938185613d80565b9350836020820285016130a585613cc8565b8060005b858110156130e157848403895281516130c28582612f61565b94506130cd83613d44565b925060208a019950506001810190506130a9565b50829750879550505050505092915050565b60006130fe82613d09565b6131088185613d91565b935061311383613cd8565b8060005b8381101561314457815161312b8882612f75565b975061313683613d51565b925050600181019050613117565b5085935050505092915050565b61315a81613f57565b82525050565b61316981613f63565b82525050565b61318061317b82613f63565b61412c565b82525050565b600061319182613d14565b61319b8185613da2565b93506131ab818560208601614096565b6131b48161423f565b840191505092915050565b6131c881614013565b82525050565b6131d781614025565b82525050565b6131e681614037565b82525050565b60006131f782613d1f565b6132018185613db3565b9350613211818560208601614096565b61321a8161423f565b840191505092915050565b600061323082613d1f565b61323a8185613dc4565b935061324a818560208601614096565b6132538161423f565b840191505092915050565b600061326b601883613dc4565b91506132768261425d565b602082019050919050565b600061328e601883613dc4565b915061329982614286565b602082019050919050565b60006132b1604383613dc4565b91506132bc826142af565b606082019050919050565b60006132d4604383613dc4565b91506132df82614324565b606082019050919050565b60006132f7601f83613dc4565b915061330282614399565b602082019050919050565b600061331a600283613dd5565b9150613325826143c2565b600282019050919050565b600061333d602183613dc4565b9150613348826143eb565b604082019050919050565b6000613360602283613dc4565b915061336b8261443a565b604082019050919050565b6000613383602783613dc4565b915061338e82614489565b604082019050919050565b60006133a6602383613dc4565b91506133b1826144d8565b604082019050919050565b60006133c9601883613dc4565b91506133d482614527565b602082019050919050565b60006133ec602283613dc4565b91506133f782614550565b604082019050919050565b600061340f602683613dc4565b915061341a8261459f565b604082019050919050565b6000613432602183613dc4565b915061343d826145ee565b604082019050919050565b6000613455601d83613dc4565b91506134608261463d565b602082019050919050565b6000613478603583613dc4565b915061348382614666565b604082019050919050565b600061349b602183613dc4565b91506134a6826146b5565b604082019050919050565b6134ba81613fe8565b82525050565b6134c981613fe8565b82525050565b6134d881614075565b82525050565b6134e781614006565b82525050565b60006134f88261330d565b9150613504828561316f565b602082019150613514828461316f565b6020820191508190509392505050565b60006020820190506135396000830184612f9c565b92915050565b60006040820190506135546000830185612f9c565b6135616020830184612f9c565b9392505050565b600060408201905061357d6000830185612f9c565b61358a60208301846134c0565b9392505050565b600060808201905081810360008301526135ab8187612fab565b905081810360208301526135bf81866130f3565b905081810360408301526135d38185613009565b90506135e26060830184613160565b95945050505050565b600060a08201905081810360008301526136058188612fab565b9050818103602083015261361981876130f3565b9050818103604083015261362d8186613009565b905061363c60608301856131dd565b6136496080830184613160565b9695505050505050565b600060c082019050818103600083015261366d8189612fab565b9050818103602083015261368181886130f3565b905081810360408301526136958187613009565b90506136a460608301866131dd565b6136b16080830185613160565b6136be60a08301846134c0565b979650505050505050565b60006020820190506136de6000830184613151565b92915050565b60006020820190506136f96000830184613160565b92915050565b600060a0820190506137146000830188613160565b6137216020830187613160565b61372e6040830186613160565b61373b60608301856134c0565b6137486080830184612f9c565b9695505050505050565b60006060820190506137676000830186613160565b61377460208301856134c0565b61378160408301846134de565b949350505050565b600060808201905061379e6000830187613160565b6137ab60208301866134de565b6137b86040830185613160565b6137c56060830184613160565b95945050505050565b60006020820190506137e360008301846131bf565b92915050565b60006020820190506137fe60008301846131ce565b92915050565b6000602082019050818103600083015261381e8184613225565b905092915050565b6000602082019050818103600083015261383f8161325e565b9050919050565b6000602082019050818103600083015261385f81613281565b9050919050565b6000602082019050818103600083015261387f816132a4565b9050919050565b6000602082019050818103600083015261389f816132c7565b9050919050565b600060208201905081810360008301526138bf816132ea565b9050919050565b600060208201905081810360008301526138df81613330565b9050919050565b600060208201905081810360008301526138ff81613353565b9050919050565b6000602082019050818103600083015261391f81613376565b9050919050565b6000602082019050818103600083015261393f81613399565b9050919050565b6000602082019050818103600083015261395f816133bc565b9050919050565b6000602082019050818103600083015261397f816133df565b9050919050565b6000602082019050818103600083015261399f81613402565b9050919050565b600060208201905081810360008301526139bf81613425565b9050919050565b600060208201905081810360008301526139df81613448565b9050919050565b600060208201905081810360008301526139ff8161346b565b9050919050565b60006020820190508181036000830152613a1f8161348e565b9050919050565b6000602082019050613a3b60008301846134c0565b92915050565b600061012082019050613a57600083018c6134c0565b613a64602083018b612f9c565b8181036040830152613a76818a612fab565b90508181036060830152613a8a81896130f3565b90508181036080830152613a9e818861307e565b905081810360a0830152613ab28187613009565b9050613ac160c08301866134cf565b613ace60e08301856134cf565b818103610100830152613ae18184613225565b90509a9950505050505050505050565b6000604082019050613b0660008301856134c0565b613b1360208301846134c0565b9392505050565b6000606082019050613b2f60008301866134c0565b613b3c60208301856134c0565b613b4960408301846134c0565b949350505050565b6000608082019050613b6660008301876134c0565b613b7360208301866134de565b613b8060408301856134c0565b8181036060830152613b928184613225565b905095945050505050565b6000613ba7613bb8565b9050613bb382826140fb565b919050565b6000604051905090565b600067ffffffffffffffff821115613bdd57613bdc6141f2565b5b602082029050602081019050919050565b600067ffffffffffffffff821115613c0957613c086141f2565b5b602082029050602081019050919050565b600067ffffffffffffffff821115613c3557613c346141f2565b5b602082029050602081019050919050565b600067ffffffffffffffff821115613c6157613c606141f2565b5b613c6a8261423f565b9050602081019050919050565b600067ffffffffffffffff821115613c9257613c916141f2565b5b613c9b8261423f565b9050602081019050919050565b6000819050602082019050919050565b6000819050602082019050919050565b6000819050602082019050919050565b6000819050602082019050919050565b600081519050919050565b600081519050919050565b600081519050919050565b600081519050919050565b600081519050919050565b600081519050919050565b6000602082019050919050565b6000602082019050919050565b6000602082019050919050565b6000602082019050919050565b600082825260208201905092915050565b600082825260208201905092915050565b600082825260208201905092915050565b600082825260208201905092915050565b600082825260208201905092915050565b600082825260208201905092915050565b600082825260208201905092915050565b600081905092915050565b6000613deb82613fe8565b9150613df683613fe8565b9250827fffffffffffffffffffffffffffffffffffffffffffffffffffffffffffffffff03821115613e2b57613e2a614136565b5b828201905092915050565b6000613e4182613ff2565b9150613e4c83613ff2565b92508267ffffffffffffffff03821115613e6957613e68614136565b5b828201905092915050565b6000613e7f82613fe8565b9150613e8a83613fe8565b925082613e9a57613e99614165565b5b828204905092915050565b6000613eb082613fe8565b9150613ebb83613fe8565b9250817fffffffffffffffffffffffffffffffffffffffffffffffffffffffffffffffff0483118215151615613ef457613ef3614136565b5b828202905092915050565b6000613f0a82613fe8565b9150613f1583613fe8565b925082821015613f2857613f27614136565b5b828203905092915050565b6000613f3e82613fc8565b9050919050565b6000613f5082613fc8565b9050919050565b60008115159050919050565b6000819050919050565b60007fffffffff0000000000000000000000000000000000000000000000000000000082169050919050565b6000613fa482613f45565b9050919050565b6000819050613fb982614704565b919050565b6000819050919050565b600073ffffffffffffffffffffffffffffffffffffffff82169050919050565b6000819050919050565b600067ffffffffffffffff82169050919050565b600060ff82169050919050565b600061401e82614051565b9050919050565b600061403082613fab565b9050919050565b600061404a61404583613fbe565b614250565b9050919050565b600061405c82614063565b9050919050565b600061406e82613fc8565b9050919050565b600061408082613ff2565b9050919050565b82818337600083830152505050565b60005b838110156140b4578082015181840152602081019050614099565b838111156140c3576000848401525b50505050565b600060028204905060018216806140e157607f821691505b602082108114156140f5576140f46141c3565b5b50919050565b6141048261423f565b810181811067ffffffffffffffff82111715614123576141226141f2565b5b80604052505050565b6000819050919050565b7f4e487b7100000000000000000000000000000000000000000000000000000000600052601160045260246000fd5b7f4e487b7100000000000000000000000000000000000000000000000000000000600052601260045260246000fd5b7f4e487b7100000000000000000000000000000000000000000000000000000000600052602160045260246000fd5b7f4e487b7100000000000000000000000000000000000000000000000000000000600052602260045260246000fd5b7f4e487b7100000000000000000000000000000000000000000000000000000000600052604160045260246000fd5b600080fd5b600080fd5b600080fd5b600080fd5b600080fd5b600080fd5b6000601f19601f8301169050919050565b60008160001b9050919050565b7f45434453413a20696e76616c6964207369676e61747572650000000000000000600082015250565b7f476f7665726e6f723a206f6e6c79476f7665726e616e63650000000000000000600082015250565b7f476f7665726e6f72566f74657351756f72756d4672616374696f6e3a2071756f60008201527f72756d4e756d657261746f72206f7665722071756f72756d44656e6f6d696e6160208201527f746f720000000000000000000000000000000000000000000000000000000000604082015250565b7f476f7665726e6f72436f6d7061746962696c697479427261766f3a2070726f7060008201527f6f73657220766f7465732062656c6f772070726f706f73616c2074687265736860208201527f6f6c640000000000000000000000000000000000000000000000000000000000604082015250565b7f45434453413a20696e76616c6964207369676e6174757265206c656e67746800600082015250565b7f1901000000000000000000000000000000000000000000000000000000000000600082015250565b7f476f7665726e6f723a20696e76616c69642070726f706f73616c206c656e677460008201527f6800000000000000000000000000000000000000000000000000000000000000602082015250565b7f45434453413a20696e76616c6964207369676e6174757265202773272076616c60008201527f7565000000000000000000000000000000000000000000000000000000000000602082015250565b7f476f7665726e6f72566f74696e6753696d706c653a20766f746520616c72656160008201527f6479206361737400000000000000000000000000000000000000000000000000602082015250565b7f476f7665726e6f723a20766f7465206e6f742063757272656e746c792061637460008201527f6976650000000000000000000000000000000000000000000000000000000000602082015250565b7f476f7665726e6f723a20656d7074792070726f706f73616c0000000000000000600082015250565b7f45434453413a20696e76616c6964207369676e6174757265202776272076616c60008201527f7565000000000000000000000000000000000000000000000000000000000000602082015250565b7f53616665436173743a2076616c756520646f65736e27742066697420696e203660008201527f3420626974730000000000000000000000000000000000000000000000000000602082015250565b7f476f7665726e6f723a2070726f706f73616c206e6f742073756363657373667560008201527f6c00000000000000000000000000000000000000000000000000000000000000602082015250565b7f476f7665726e6f723a20756e6b6e6f776e2070726f706f73616c206964000000600082015250565b7f476f7665726e6f72566f74696e6753696d706c653a20696e76616c696420766160008201527f6c756520666f7220656e756d20566f7465547970650000000000000000000000602082015250565b7f476f7665726e6f723a2070726f706f73616c20616c726561647920657869737460008201527f7300000000000000000000000000000000000000000000000000000000000000602082015250565b6008811061471557614714614194565b5b50565b61472181613f33565b811461472c57600080fd5b50565b61473881613f57565b811461474357600080fd5b50565b61474f81613f63565b811461475a57600080fd5b50565b61476681613f6d565b811461477157600080fd5b50565b61477d81613f99565b811461478857600080fd5b50565b61479481613fe8565b811461479f57600080fd5b50565b6147ab81614006565b81146147b657600080fd5b5056fea26469706673582212200ab3f080b5e14d820d51ca1af7f4b8bf4ac9f2bda95fb6ad6a5bb488208e270364736f6c63430008070033",
  "devdoc": {
    "kind": "dev",
    "methods": {
      "COUNTING_MODE()": {
        "details": "See {IGovernor-COUNTING_MODE}."
      },
      "castVote(uint256,uint8)": {
        "details": "See {IGovernor-castVote}."
      },
      "castVoteBySig(uint256,uint8,uint8,bytes32,bytes32)": {
        "details": "See {IGovernor-castVoteBySig}."
      },
      "castVoteWithReason(uint256,uint8,string)": {
        "details": "See {IGovernor-castVoteWithReason}."
      },
      "execute(address[],uint256[],bytes[],bytes32)": {
        "details": "See {IGovernor-execute}."
      },
      "hasVoted(uint256,address)": {
        "details": "See {IGovernor-hasVoted}."
      },
      "hashProposal(address[],uint256[],bytes[],bytes32)": {
        "details": "See {IGovernor-hashProposal}. The proposal id is produced by hashing the RLC encoded `targets` array, the `values` array, the `calldatas` array and the descriptionHash (bytes32 which itself is the keccak256 hash of the description string). This proposal id can be produced from the proposal data which is part of the {ProposalCreated} event. It can even be computed in advance, before the proposal is submitted. Note that the chainId and the governor address are not part of the proposal id computation. Consequently, the same proposal (with same operation and same description) will have the same id if submitted on multiple governors accross multiple networks. This also means that in order to execute the same operation twice (on the same governor) the proposer will have to change the description in order to avoid proposal id conflicts."
      },
      "name()": {
        "details": "See {IGovernor-name}."
      },
      "proposalDeadline(uint256)": {
        "details": "See {IGovernor-proposalDeadline}."
      },
      "proposalEta(uint256)": {
        "details": "Public accessor to check the eta of a queued proposal"
      },
      "proposalSnapshot(uint256)": {
        "details": "See {IGovernor-proposalSnapshot}."
      },
      "proposalThreshold()": {
        "details": "Part of the Governor Bravo's interface: _\"The number of votes required in order for a voter to become a proposer\"_."
      },
      "proposalVotes(uint256)": {
        "details": "Accessor to the internal vote counts."
      },
      "queue(address[],uint256[],bytes[],bytes32)": {
        "details": "Function to queue a proposal to the timelock."
      },
      "timelock()": {
        "details": "Public accessor to check the address of the timelock"
      },
      "updateTimelock(address)": {
        "details": "Public endpoint to update the underlying timelock instance. Restricted to the timelock itself, so updates must be proposed, scheduled and executed using the {Governor} workflow."
      },
      "version()": {
        "details": "See {IGovernor-version}."
      },
      "votingDelay()": {
        "details": "delay, in number of block, between the proposal is created and the vote starts. This can be increassed to leave time for users to buy voting power, of delegate it, before the voting of a proposal starts."
      },
      "votingPeriod()": {
        "details": "delay, in number of blocks, between the vote start and vote ends. Note: the {votingDelay} can delay the start of the vote. This must be considered when setting the voting duration compared to the voting delay."
      }
    },
    "version": 1
  },
  "userdoc": {
    "kind": "user",
    "methods": {
      "votingDelay()": {
        "notice": "module:user-config"
      },
      "votingPeriod()": {
        "notice": "module:user-config"
      }
    },
    "version": 1
  },
  "storageLayout": {
    "storage": [
      {
        "astId": 5151,
        "contract": "contracts/ENSGovernor.sol:ENSGovernor",
        "label": "_name",
        "offset": 0,
        "slot": "0",
        "type": "t_string_storage"
      },
      {
        "astId": 5156,
        "contract": "contracts/ENSGovernor.sol:ENSGovernor",
        "label": "_proposals",
        "offset": 0,
        "slot": "1",
        "type": "t_mapping(t_uint256,t_struct(ProposalCore)5149_storage)"
      },
      {
        "astId": 6930,
        "contract": "contracts/ENSGovernor.sol:ENSGovernor",
        "label": "_proposalVotes",
        "offset": 0,
        "slot": "2",
        "type": "t_mapping(t_uint256,t_struct(ProposalVote)6925_storage)"
      },
      {
        "astId": 7600,
        "contract": "contracts/ENSGovernor.sol:ENSGovernor",
        "label": "_quorumNumerator",
        "offset": 0,
        "slot": "3",
        "type": "t_uint256"
      },
      {
        "astId": 7196,
        "contract": "contracts/ENSGovernor.sol:ENSGovernor",
        "label": "_timelock",
        "offset": 0,
        "slot": "4",
        "type": "t_contract(TimelockController)6904"
      },
      {
        "astId": 7200,
        "contract": "contracts/ENSGovernor.sol:ENSGovernor",
        "label": "_timelockIds",
        "offset": 0,
        "slot": "5",
        "type": "t_mapping(t_uint256,t_bytes32)"
      }
    ],
    "types": {
      "t_address": {
        "encoding": "inplace",
        "label": "address",
        "numberOfBytes": "20"
      },
      "t_bool": {
        "encoding": "inplace",
        "label": "bool",
        "numberOfBytes": "1"
      },
      "t_bytes32": {
        "encoding": "inplace",
        "label": "bytes32",
        "numberOfBytes": "32"
      },
      "t_contract(TimelockController)6904": {
        "encoding": "inplace",
        "label": "contract TimelockController",
        "numberOfBytes": "20"
      },
      "t_mapping(t_address,t_bool)": {
        "encoding": "mapping",
        "key": "t_address",
        "label": "mapping(address => bool)",
        "numberOfBytes": "32",
        "value": "t_bool"
      },
      "t_mapping(t_uint256,t_bytes32)": {
        "encoding": "mapping",
        "key": "t_uint256",
        "label": "mapping(uint256 => bytes32)",
        "numberOfBytes": "32",
        "value": "t_bytes32"
      },
      "t_mapping(t_uint256,t_struct(ProposalCore)5149_storage)": {
        "encoding": "mapping",
        "key": "t_uint256",
        "label": "mapping(uint256 => struct Governor.ProposalCore)",
        "numberOfBytes": "32",
        "value": "t_struct(ProposalCore)5149_storage"
      },
      "t_mapping(t_uint256,t_struct(ProposalVote)6925_storage)": {
        "encoding": "mapping",
        "key": "t_uint256",
        "label": "mapping(uint256 => struct GovernorCountingSimple.ProposalVote)",
        "numberOfBytes": "32",
        "value": "t_struct(ProposalVote)6925_storage"
      },
      "t_string_storage": {
        "encoding": "bytes",
        "label": "string",
        "numberOfBytes": "32"
      },
      "t_struct(BlockNumber)9941_storage": {
        "encoding": "inplace",
        "label": "struct Timers.BlockNumber",
        "members": [
          {
            "astId": 9940,
            "contract": "contracts/ENSGovernor.sol:ENSGovernor",
            "label": "_deadline",
            "offset": 0,
            "slot": "0",
            "type": "t_uint64"
          }
        ],
        "numberOfBytes": "32"
      },
      "t_struct(ProposalCore)5149_storage": {
        "encoding": "inplace",
        "label": "struct Governor.ProposalCore",
        "members": [
          {
            "astId": 5141,
            "contract": "contracts/ENSGovernor.sol:ENSGovernor",
            "label": "voteStart",
            "offset": 0,
            "slot": "0",
            "type": "t_struct(BlockNumber)9941_storage"
          },
          {
            "astId": 5144,
            "contract": "contracts/ENSGovernor.sol:ENSGovernor",
            "label": "voteEnd",
            "offset": 0,
            "slot": "1",
            "type": "t_struct(BlockNumber)9941_storage"
          },
          {
            "astId": 5146,
            "contract": "contracts/ENSGovernor.sol:ENSGovernor",
            "label": "executed",
            "offset": 0,
            "slot": "2",
            "type": "t_bool"
          },
          {
            "astId": 5148,
            "contract": "contracts/ENSGovernor.sol:ENSGovernor",
            "label": "canceled",
            "offset": 1,
            "slot": "2",
            "type": "t_bool"
          }
        ],
        "numberOfBytes": "96"
      },
      "t_struct(ProposalVote)6925_storage": {
        "encoding": "inplace",
        "label": "struct GovernorCountingSimple.ProposalVote",
        "members": [
          {
            "astId": 6916,
            "contract": "contracts/ENSGovernor.sol:ENSGovernor",
            "label": "againstVotes",
            "offset": 0,
            "slot": "0",
            "type": "t_uint256"
          },
          {
            "astId": 6918,
            "contract": "contracts/ENSGovernor.sol:ENSGovernor",
            "label": "forVotes",
            "offset": 0,
            "slot": "1",
            "type": "t_uint256"
          },
          {
            "astId": 6920,
            "contract": "contracts/ENSGovernor.sol:ENSGovernor",
            "label": "abstainVotes",
            "offset": 0,
            "slot": "2",
            "type": "t_uint256"
          },
          {
            "astId": 6924,
            "contract": "contracts/ENSGovernor.sol:ENSGovernor",
            "label": "hasVoted",
            "offset": 0,
            "slot": "3",
            "type": "t_mapping(t_address,t_bool)"
          }
        ],
        "numberOfBytes": "128"
      },
      "t_uint256": {
        "encoding": "inplace",
        "label": "uint256",
        "numberOfBytes": "32"
      },
      "t_uint64": {
        "encoding": "inplace",
        "label": "uint64",
        "numberOfBytes": "8"
      }
    }
  }
}