{
  "address": "0x3CA5CCC96648d016D41c5aF40eED82202BD019cc",
  "abi": [
    {
      "inputs": [
        {
          "internalType": "contract ERC20Votes",
          "name": "_token",
          "type": "address"
        },
        {
          "internalType": "contract IUniversalResolver",
          "name": "_metadataResolver",
          "type": "address"
        }
      ],
      "stateMutability": "nonpayable",
      "type": "constructor"
    },
    {
      "inputs": [
        {
          "internalType": "address",
          "name": "sender",
          "type": "address"
        },
        {
          "internalType": "uint256",
          "name": "balance",
          "type": "uint256"
        },
        {
          "internalType": "uint256",
          "name": "needed",
          "type": "uint256"
        },
        {
          "internalType": "uint256",
          "name": "tokenId",
          "type": "uint256"
        }
      ],
      "name": "ERC1155InsufficientBalance",
      "type": "error"
    },
    {
      "inputs": [
        {
          "internalType": "address",
          "name": "approver",
          "type": "address"
        }
      ],
      "name": "ERC1155InvalidApprover",
      "type": "error"
    },
    {
      "inputs": [
        {
          "internalType": "uint256",
          "name": "idsLength",
          "type": "uint256"
        },
        {
          "internalType": "uint256",
          "name": "valuesLength",
          "type": "uint256"
        }
      ],
      "name": "ERC1155InvalidArrayLength",
      "type": "error"
    },
    {
      "inputs": [
        {
          "internalType": "address",
          "name": "operator",
          "type": "address"
        }
      ],
      "name": "ERC1155InvalidOperator",
      "type": "error"
    },
    {
      "inputs": [
        {
          "internalType": "address",
          "name": "receiver",
          "type": "address"
        }
      ],
      "name": "ERC1155InvalidReceiver",
      "type": "error"
    },
    {
      "inputs": [
        {
          "internalType": "address",
          "name": "sender",
          "type": "address"
        }
      ],
      "name": "ERC1155InvalidSender",
      "type": "error"
    },
    {
      "inputs": [
        {
          "internalType": "address",
          "name": "operator",
          "type": "address"
        },
        {
          "internalType": "address",
          "name": "owner",
          "type": "address"
        }
      ],
      "name": "ERC1155MissingApprovalForAll",
      "type": "error"
    },
    {
      "inputs": [],
      "name": "InvalidDelegateAddress",
      "type": "error"
    },
    {
      "inputs": [
        {
          "internalType": "address",
          "name": "owner",
          "type": "address"
        }
      ],
      "name": "OwnableInvalidOwner",
      "type": "error"
    },
    {
      "inputs": [
        {
          "internalType": "address",
          "name": "account",
          "type": "address"
        }
      ],
      "name": "OwnableUnauthorizedAccount",
      "type": "error"
    },
    {
      "anonymous": false,
      "inputs": [
        {
          "indexed": true,
          "internalType": "address",
          "name": "account",
          "type": "address"
        },
        {
          "indexed": true,
          "internalType": "address",
          "name": "operator",
          "type": "address"
        },
        {
          "indexed": false,
          "internalType": "bool",
          "name": "approved",
          "type": "bool"
        }
      ],
      "name": "ApprovalForAll",
      "type": "event"
    },
    {
      "anonymous": false,
      "inputs": [
        {
          "indexed": true,
          "internalType": "address",
          "name": "owner",
          "type": "address"
        },
        {
          "indexed": true,
          "internalType": "address",
          "name": "from",
          "type": "address"
        },
        {
          "indexed": true,
          "internalType": "address",
          "name": "to",
          "type": "address"
        },
        {
          "indexed": false,
          "internalType": "uint256",
          "name": "amount",
          "type": "uint256"
        }
      ],
      "name": "DelegationProcessed",
      "type": "event"
    },
    {
      "anonymous": false,
      "inputs": [
        {
          "indexed": false,
          "internalType": "string",
          "name": "uri",
          "type": "string"
        }
      ],
      "name": "MetadataURIUpdated",
      "type": "event"
    },
    {
      "anonymous": false,
      "inputs": [
        {
          "indexed": true,
          "internalType": "address",
          "name": "previousOwner",
          "type": "address"
        },
        {
          "indexed": true,
          "internalType": "address",
          "name": "newOwner",
          "type": "address"
        }
      ],
      "name": "OwnershipTransferred",
      "type": "event"
    },
    {
      "anonymous": false,
      "inputs": [
        {
          "indexed": true,
          "internalType": "address",
          "name": "delegate",
          "type": "address"
        },
        {
          "indexed": false,
          "internalType": "address",
          "name": "proxyAddress",
          "type": "address"
        }
      ],
      "name": "ProxyDeployed",
      "type": "event"
    },
    {
      "anonymous": false,
      "inputs": [
        {
          "indexed": true,
          "internalType": "address",
          "name": "operator",
          "type": "address"
        },
        {
          "indexed": true,
          "internalType": "address",
          "name": "from",
          "type": "address"
        },
        {
          "indexed": true,
          "internalType": "address",
          "name": "to",
          "type": "address"
        },
        {
          "indexed": false,
          "internalType": "uint256[]",
          "name": "ids",
          "type": "uint256[]"
        },
        {
          "indexed": false,
          "internalType": "uint256[]",
          "name": "values",
          "type": "uint256[]"
        }
      ],
      "name": "TransferBatch",
      "type": "event"
    },
    {
      "anonymous": false,
      "inputs": [
        {
          "indexed": true,
          "internalType": "address",
          "name": "operator",
          "type": "address"
        },
        {
          "indexed": true,
          "internalType": "address",
          "name": "from",
          "type": "address"
        },
        {
          "indexed": true,
          "internalType": "address",
          "name": "to",
          "type": "address"
        },
        {
          "indexed": false,
          "internalType": "uint256",
          "name": "id",
          "type": "uint256"
        },
        {
          "indexed": false,
          "internalType": "uint256",
          "name": "value",
          "type": "uint256"
        }
      ],
      "name": "TransferSingle",
      "type": "event"
    },
    {
      "anonymous": false,
      "inputs": [
        {
          "indexed": false,
          "internalType": "string",
          "name": "value",
          "type": "string"
        },
        {
          "indexed": true,
          "internalType": "uint256",
          "name": "id",
          "type": "uint256"
        }
      ],
      "name": "URI",
      "type": "event"
    },
    {
      "inputs": [
        {
          "internalType": "address",
          "name": "account",
          "type": "address"
        },
        {
          "internalType": "uint256",
          "name": "id",
          "type": "uint256"
        }
      ],
      "name": "balanceOf",
      "outputs": [
        {
          "internalType": "uint256",
          "name": "",
          "type": "uint256"
        }
      ],
      "stateMutability": "view",
      "type": "function"
    },
    {
      "inputs": [
        {
          "internalType": "address[]",
          "name": "accounts",
          "type": "address[]"
        },
        {
          "internalType": "uint256[]",
          "name": "ids",
          "type": "uint256[]"
        }
      ],
      "name": "balanceOfBatch",
      "outputs": [
        {
          "internalType": "uint256[]",
          "name": "",
          "type": "uint256[]"
        }
      ],
      "stateMutability": "view",
      "type": "function"
    },
    {
      "inputs": [
        {
          "internalType": "uint256[]",
          "name": "sources",
          "type": "uint256[]"
        },
        {
          "internalType": "uint256[]",
          "name": "targets",
          "type": "uint256[]"
        },
        {
          "internalType": "uint256[]",
          "name": "amounts",
          "type": "uint256[]"
        }
      ],
      "name": "delegateMulti",
      "outputs": [],
      "stateMutability": "nonpayable",
      "type": "function"
    },
    {
      "inputs": [
        {
          "internalType": "address",
          "name": "account",
          "type": "address"
        },
        {
          "internalType": "address",
          "name": "operator",
          "type": "address"
        }
      ],
      "name": "isApprovedForAll",
      "outputs": [
        {
          "internalType": "bool",
          "name": "",
          "type": "bool"
        }
      ],
      "stateMutability": "view",
      "type": "function"
    },
    {
      "inputs": [],
      "name": "metadataResolver",
      "outputs": [
        {
          "internalType": "contract IUniversalResolver",
          "name": "",
          "type": "address"
        }
      ],
      "stateMutability": "view",
      "type": "function"
    },
    {
      "inputs": [],
      "name": "owner",
      "outputs": [
        {
          "internalType": "address",
          "name": "",
          "type": "address"
        }
      ],
      "stateMutability": "view",
      "type": "function"
    },
    {
      "inputs": [],
      "name": "renounceOwnership",
      "outputs": [],
      "stateMutability": "nonpayable",
      "type": "function"
    },
    {
      "inputs": [
        {
          "internalType": "address",
          "name": "from",
          "type": "address"
        },
        {
          "internalType": "address",
          "name": "to",
          "type": "address"
        },
        {
          "internalType": "uint256[]",
          "name": "ids",
          "type": "uint256[]"
        },
        {
          "internalType": "uint256[]",
          "name": "values",
          "type": "uint256[]"
        },
        {
          "internalType": "bytes",
          "name": "data",
          "type": "bytes"
        }
      ],
      "name": "safeBatchTransferFrom",
      "outputs": [],
      "stateMutability": "nonpayable",
      "type": "function"
    },
    {
      "inputs": [
        {
          "internalType": "address",
          "name": "from",
          "type": "address"
        },
        {
          "internalType": "address",
          "name": "to",
          "type": "address"
        },
        {
          "internalType": "uint256",
          "name": "id",
          "type": "uint256"
        },
        {
          "internalType": "uint256",
          "name": "value",
          "type": "uint256"
        },
        {
          "internalType": "bytes",
          "name": "data",
          "type": "bytes"
        }
      ],
      "name": "safeTransferFrom",
      "outputs": [],
      "stateMutability": "nonpayable",
      "type": "function"
    },
    {
      "inputs": [
        {
          "internalType": "address",
          "name": "operator",
          "type": "address"
        },
        {
          "internalType": "bool",
          "name": "approved",
          "type": "bool"
        }
      ],
      "name": "setApprovalForAll",
      "outputs": [],
      "stateMutability": "nonpayable",
      "type": "function"
    },
    {
      "inputs": [
        {
          "internalType": "contract IUniversalResolver",
          "name": "_newResolver",
          "type": "address"
        }
      ],
      "name": "setMetadataResolver",
      "outputs": [],
      "stateMutability": "nonpayable",
      "type": "function"
    },
    {
      "inputs": [
        {
          "internalType": "bytes4",
          "name": "interfaceId",
          "type": "bytes4"
        }
      ],
      "name": "supportsInterface",
      "outputs": [
        {
          "internalType": "bool",
          "name": "",
          "type": "bool"
        }
      ],
      "stateMutability": "view",
      "type": "function"
    },
    {
      "inputs": [],
      "name": "token",
      "outputs": [
        {
          "internalType": "contract ERC20Votes",
          "name": "",
          "type": "address"
        }
      ],
      "stateMutability": "view",
      "type": "function"
    },
    {
      "inputs": [
        {
          "internalType": "uint256",
          "name": "tokenId",
          "type": "uint256"
        }
      ],
      "name": "tokenURI",
      "outputs": [
        {
          "internalType": "string",
          "name": "",
          "type": "string"
        }
      ],
      "stateMutability": "view",
      "type": "function"
    },
    {
      "inputs": [
        {
          "internalType": "address",
          "name": "newOwner",
          "type": "address"
        }
      ],
      "name": "transferOwnership",
      "outputs": [],
      "stateMutability": "nonpayable",
      "type": "function"
    },
    {
      "inputs": [
        {
          "internalType": "uint256",
          "name": "",
          "type": "uint256"
        }
      ],
      "name": "uri",
      "outputs": [
        {
          "internalType": "string",
          "name": "",
          "type": "string"
        }
      ],
      "stateMutability": "view",
      "type": "function"
    }
  ],
  "transactionHash": "0x64f8a1a64da432f3f49cc3e0031772caf15e3ca7fc535a3897b34bc5eb1b8a2f",
  "args": [
    "0xC18360217D8F7Ab5e7c516566761Ea12Ce7F9D72",
    "0x50Eb7A57C17e0E97EaC1B366b1Ea673Ec2BbDa61"
  ],
  "numDeployments": 3,
  "solcInputHash": "282cf47a7cfbce48bce77e68cc86c32d",
  "bytecode": "0x60a06040523480156200001157600080fd5b5060405162005e0838038062005e088339818101604052810190620000379190620002fc565b336040518060200160405280600081525062000059816200015e60201b60201c565b50600073ffffffffffffffffffffffffffffffffffffffff168173ffffffffffffffffffffffffffffffffffffffff1603620000cf5760006040517f1e4fbdf7000000000000000000000000000000000000000000000000000000008152600401620000c6919062000354565b60405180910390fd5b620000e0816200017360201b60201c565b508173ffffffffffffffffffffffffffffffffffffffff1660808173ffffffffffffffffffffffffffffffffffffffff168152505080600460006101000a81548173ffffffffffffffffffffffffffffffffffffffff021916908373ffffffffffffffffffffffffffffffffffffffff1602179055505050620006d2565b80600290816200016f9190620005eb565b5050565b6000600360009054906101000a900473ffffffffffffffffffffffffffffffffffffffff16905081600360006101000a81548173ffffffffffffffffffffffffffffffffffffffff021916908373ffffffffffffffffffffffffffffffffffffffff1602179055508173ffffffffffffffffffffffffffffffffffffffff168173ffffffffffffffffffffffffffffffffffffffff167f8be0079c531659141344cd1fd0a4f28419497f9722a3daafe3b4186f6b6457e060405160405180910390a35050565b600080fd5b600073ffffffffffffffffffffffffffffffffffffffff82169050919050565b60006200026b826200023e565b9050919050565b60006200027f826200025e565b9050919050565b620002918162000272565b81146200029d57600080fd5b50565b600081519050620002b18162000286565b92915050565b6000620002c4826200025e565b9050919050565b620002d681620002b7565b8114620002e257600080fd5b50565b600081519050620002f681620002cb565b92915050565b6000806040838503121562000316576200031562000239565b5b60006200032685828601620002a0565b92505060206200033985828601620002e5565b9150509250929050565b6200034e816200025e565b82525050565b60006020820190506200036b600083018462000343565b92915050565b600081519050919050565b7f4e487b7100000000000000000000000000000000000000000000000000000000600052604160045260246000fd5b7f4e487b7100000000000000000000000000000000000000000000000000000000600052602260045260246000fd5b60006002820490506001821680620003f357607f821691505b602082108103620004095762000408620003ab565b5b50919050565b60008190508160005260206000209050919050565b60006020601f8301049050919050565b600082821b905092915050565b600060088302620004737fffffffffffffffffffffffffffffffffffffffffffffffffffffffffffffffff8262000434565b6200047f868362000434565b95508019841693508086168417925050509392505050565b6000819050919050565b6000819050919050565b6000620004cc620004c6620004c08462000497565b620004a1565b62000497565b9050919050565b6000819050919050565b620004e883620004ab565b62000500620004f782620004d3565b84845462000441565b825550505050565b600090565b6200051762000508565b62000524818484620004dd565b505050565b5b818110156200054c57620005406000826200050d565b6001810190506200052a565b5050565b601f8211156200059b5762000565816200040f565b620005708462000424565b8101602085101562000580578190505b620005986200058f8562000424565b83018262000529565b50505b505050565b600082821c905092915050565b6000620005c060001984600802620005a0565b1980831691505092915050565b6000620005db8383620005ad565b9150826002028217905092915050565b620005f68262000371565b67ffffffffffffffff8111156200061257620006116200037c565b5b6200061e8254620003da565b6200062b82828562000550565b600060209050601f8311600181146200066357600084156200064e578287015190505b6200065a8582620005cd565b865550620006ca565b601f19841662000673866200040f565b60005b828110156200069d5784890151825560018201915060208501945060208101905062000676565b86831015620006bd5784890151620006b9601f891682620005ad565b8355505b6001600288020188555050505b505050505050565b6080516156f76200071160003960008181611173015281816114020152818161154401528181612507015281816125e601526126bd01526156f76000f3fe60806040523480156200001157600080fd5b5060043610620001175760003560e01c80638da5cb5b11620000a5578063e985e9c5116200006f578063e985e9c514620002fa578063f242432a1462000330578063f2fde38b1462000350578063fc0c546a14620003705762000117565b80638da5cb5b1462000260578063a0c76f621462000282578063a22cb46514620002a4578063c87b56dd14620002c45762000117565b80634e1273f411620000e75780634e1273f414620001de578063600f6abf1462000214578063715018a614620002345780637995c1e414620002405762000117565b8062fdd58e146200011c57806301ffc9a714620001525780630e89341c14620001885780632eb2c2d614620001be575b600080fd5b6200013a60048036038101906200013491906200368f565b62000392565b604051620001499190620036e7565b60405180910390f35b6200017060048036038101906200016a919062003761565b620003ec565b6040516200017f9190620037b0565b60405180910390f35b620001a66004803603810190620001a09190620037cd565b620004d2565b604051620001b5919062003899565b60405180910390f35b620001dc6004803603810190620001d6919062003ae9565b6200056e565b005b620001fc6004803603810190620001f6919062003ca4565b62000620565b6040516200020b919062003df7565b60405180910390f35b6200023260048036038101906200022c919062003e7f565b62000743565b005b6200023e62000b1c565b005b6200025e600480360381019062000258919062003f8a565b62000b34565b005b6200026a62000b82565b60405162000279919062003fcd565b60405180910390f35b6200028c62000bac565b6040516200029b919062004055565b60405180910390f35b620002c26004803603810190620002bc9190620040a3565b62000bd2565b005b620002e26004803603810190620002dc9190620037cd565b62000bec565b604051620002f1919062003899565b60405180910390f35b620003186004803603810190620003129190620040ea565b62000f9e565b604051620003279190620037b0565b60405180910390f35b6200034e600480360381019062000348919062004131565b62001032565b005b6200036e6004803603810190620003689190620041d8565b620010e4565b005b6200037a62001171565b6040516200038991906200422f565b60405180910390f35b600080600083815260200190815260200160002060008473ffffffffffffffffffffffffffffffffffffffff1673ffffffffffffffffffffffffffffffffffffffff16815260200190815260200160002054905092915050565b60007fd9b67a26000000000000000000000000000000000000000000000000000000007bffffffffffffffffffffffffffffffffffffffffffffffffffffffff1916827bffffffffffffffffffffffffffffffffffffffffffffffffffffffff19161480620004b857507f0e89341c000000000000000000000000000000000000000000000000000000007bffffffffffffffffffffffffffffffffffffffffffffffffffffffff1916827bffffffffffffffffffffffffffffffffffffffffffffffffffffffff1916145b80620004cb5750620004ca8262001195565b5b9050919050565b606060028054620004e3906200427b565b80601f016020809104026020016040519081016040528092919081815260200182805462000511906200427b565b8015620005625780601f10620005365761010080835404028352916020019162000562565b820191906000526020600020905b8154815290600101906020018083116200054457829003601f168201915b50505050509050919050565b60006200057a620011ff565b90508073ffffffffffffffffffffffffffffffffffffffff168673ffffffffffffffffffffffffffffffffffffffff1614158015620005c25750620005c0868262000f9e565b155b15620006095780866040517fe237d92200000000000000000000000000000000000000000000000000000000815260040162000600929190620042b0565b60405180910390fd5b62000618868686868662001207565b505050505050565b606081518351146200066f57815183516040517f5b05999100000000000000000000000000000000000000000000000000000000815260040162000666929190620042dd565b60405180910390fd5b6000835167ffffffffffffffff8111156200068f576200068e620038c2565b5b604051908082528060200260200182016040528015620006be5781602001602082028036833780820191505090505b50905060005b8451811015620007385762000702620006e782876200130790919063ffffffff16565b620006fc83876200131b90919063ffffffff16565b62000392565b8282815181106200071857620007176200430a565b5b60200260200101818152505080620007309062004368565b9050620006c4565b508091505092915050565b60008686905090506000858590509050600084849050905060008311806200076b5750600082115b620007ad576040517f08c379a0000000000000000000000000000000000000000000000000000000008152600401620007a49062004451565b60405180910390fd5b80620007ba84846200132f565b14620007fd576040517f08c379a0000000000000000000000000000000000000000000000000000000008152600401620007f4906200450f565b60405180910390fd5b60006200080b848462001348565b905060005b82811015620009a55760008086831015620008a057600060a08e8e868181106200083f576200083e6200430a565b5b90506020020135901c1462000880576040517fe2f33af900000000000000000000000000000000000000000000000000000000815260040160405180910390fd5b8c8c848181106200089657620008956200430a565b5b9050602002013591505b858310156200092457600060a08c8c86818110620008c357620008c26200430a565b5b90506020020135901c1462000904576040517fe2f33af900000000000000000000000000000000000000000000000000000000815260040160405180910390fd5b8a8a848181106200091a57620009196200430a565b5b9050602002013590505b60008989858181106200093c576200093b6200430a565b5b9050602002013590508484101562000961576200095b83838362001361565b62000994565b878410156200097c57620009768382620013f1565b62000993565b86841015620009925762000991828262001533565b5b5b5b838060010194505050505062000810565b50600084111562000a535762000a52338b8b80806020026020016040519081016040528093929190818152602001838360200280828437600081840152601f19601f820116905080830192505050505050508888600090899262000a0c939291906200453b565b80806020026020016040519081016040528093929190818152602001838360200280828437600081840152601f19601f8201169050808301925050505050505062001675565b5b600083111562000b105762000b0f33898980806020026020016040519081016040528093929190818152602001838360200280828437600081840152601f19601f820116905080830192505050505050508888600090889262000ab9939291906200453b565b80806020026020016040519081016040528093929190818152602001838360200280828437600081840152601f19601f82011690508083019250505050505050604051806020016040528060008152506200170e565b5b50505050505050505050565b62000b2662001799565b62000b32600062001829565b565b62000b3e62001799565b80600460006101000a81548173ffffffffffffffffffffffffffffffffffffffff021916908373ffffffffffffffffffffffffffffffffffffffff16021790555050565b6000600360009054906101000a900473ffffffffffffffffffffffffffffffffffffffff16905090565b600460009054906101000a900473ffffffffffffffffffffffffffffffffffffffff1681565b62000be862000be0620011ff565b8383620018ef565b5050565b606060008290506060600460009054906101000a900473ffffffffffffffffffffffffffffffffffffffff1673ffffffffffffffffffffffffffffffffffffffff16635d78a2178360405160200162000c469190620045cc565b604051602081830303815290604052603c6040518363ffffffff1660e01b815260040162000c7692919062004689565b600060405180830381865afa92505050801562000cb857506040513d6000823e3d601f19601f8201168201806040525081019062000cb5919062004788565b60015b1562000cc5578293505050505b600060405180602001604052806000815250905060008251111562000e765760008062000cf28462001a64565b9150915060008160405160240162000d0b91906200486e565b6040516020818303038152906040527f59d1d43c000000000000000000000000000000000000000000000000000000007bffffffffffffffffffffffffffffffffffffffffffffffffffffffff19166020820180517bffffffffffffffffffffffffffffffffffffffffffffffffffffffff83818316178352505050509050600460009054906101000a900473ffffffffffffffffffffffffffffffffffffffff1673ffffffffffffffffffffffffffffffffffffffff16639061b92384836040518363ffffffff1660e01b815260040162000de9929190620048a0565b600060405180830381865afa92505050801562000e2b57506040513d6000823e3d601f19601f8201168201806040525081019062000e28919062004959565b60015b1562000e6d57600082511462000e57578180602001905181019062000e519190620049bf565b62000e68565b604051806020016040528060008152505b955050505b50505062000ebb565b62000e978373ffffffffffffffffffffffffffffffffffffffff1662001d7b565b60405160200162000ea9919062004a78565b60405160208183030381529060405291505b606060008251111562000f205762000ed38362001f4c565b62000ede87620021ec565b62000ee98562001f4c565b62000ef48562001f4c565b60405160200162000f09949392919062004bfc565b604051602081830303815290604052905062000f67565b62000f2b8362001f4c565b62000f3687620021ec565b62000f418562001f4c565b60405160200162000f559392919062004ca4565b60405160208183030381529060405290505b62000f7281620022c5565b60405160200162000f84919062004d52565b604051602081830303815290604052945050505050919050565b6000600160008473ffffffffffffffffffffffffffffffffffffffff1673ffffffffffffffffffffffffffffffffffffffff16815260200190815260200160002060008373ffffffffffffffffffffffffffffffffffffffff1673ffffffffffffffffffffffffffffffffffffffff16815260200190815260200160002060009054906101000a900460ff16905092915050565b60006200103e620011ff565b90508073ffffffffffffffffffffffffffffffffffffffff168673ffffffffffffffffffffffffffffffffffffffff161415801562001086575062001084868262000f9e565b155b15620010cd5780866040517fe237d922000000000000000000000000000000000000000000000000000000008152600401620010c4929190620042b0565b60405180910390fd5b620010dc8686868686620022f5565b505050505050565b620010ee62001799565b600073ffffffffffffffffffffffffffffffffffffffff168173ffffffffffffffffffffffffffffffffffffffff1603620011635760006040517f1e4fbdf70000000000000000000000000000000000000000000000000000000081526004016200115a919062003fcd565b60405180910390fd5b6200116e8162001829565b50565b7f000000000000000000000000000000000000000000000000000000000000000081565b60007f01ffc9a7000000000000000000000000000000000000000000000000000000007bffffffffffffffffffffffffffffffffffffffffffffffffffffffff1916827bffffffffffffffffffffffffffffffffffffffffffffffffffffffff1916149050919050565b600033905090565b600073ffffffffffffffffffffffffffffffffffffffff168473ffffffffffffffffffffffffffffffffffffffff16036200127c5760006040517f57f447ce00000000000000000000000000000000000000000000000000000000815260040162001273919062003fcd565b60405180910390fd5b600073ffffffffffffffffffffffffffffffffffffffff168573ffffffffffffffffffffffffffffffffffffffff1603620012f15760006040517f01a83514000000000000000000000000000000000000000000000000000000008152600401620012e8919062003fcd565b60405180910390fd5b6200130085858585856200240a565b5050505050565b600060208202602084010151905092915050565b600060208202602084010151905092915050565b6000620013408284118484620024cb565b905092915050565b6000620013598284108484620024cb565b905092915050565b6200136e838383620024e7565b8173ffffffffffffffffffffffffffffffffffffffff168373ffffffffffffffffffffffffffffffffffffffff163373ffffffffffffffffffffffffffffffffffffffff167f8ca1b1d784c1230a2eb4577fbfcd56d30da1e9e57d60b387358341d643dbe28d84604051620013e49190620036e7565b60405180910390a4505050565b6000620013fe83620025bb565b90507f000000000000000000000000000000000000000000000000000000000000000073ffffffffffffffffffffffffffffffffffffffff166323b872dd8233856040518463ffffffff1660e01b81526004016200145f9392919062004d7c565b6020604051808303816000875af11580156200147f573d6000803e3d6000fd5b505050506040513d601f19601f82011682018060405250810190620014a5919062004dd0565b620014af57600080fd5b600073ffffffffffffffffffffffffffffffffffffffff168373ffffffffffffffffffffffffffffffffffffffff163373ffffffffffffffffffffffffffffffffffffffff167f8ca1b1d784c1230a2eb4577fbfcd56d30da1e9e57d60b387358341d643dbe28d85604051620015269190620036e7565b60405180910390a4505050565b6000620015408362002698565b90507f000000000000000000000000000000000000000000000000000000000000000073ffffffffffffffffffffffffffffffffffffffff166323b872dd3383856040518463ffffffff1660e01b8152600401620015a19392919062004d7c565b6020604051808303816000875af1158015620015c1573d6000803e3d6000fd5b505050506040513d601f19601f82011682018060405250810190620015e7919062004dd0565b620015f157600080fd5b8273ffffffffffffffffffffffffffffffffffffffff16600073ffffffffffffffffffffffffffffffffffffffff163373ffffffffffffffffffffffffffffffffffffffff167f8ca1b1d784c1230a2eb4577fbfcd56d30da1e9e57d60b387358341d643dbe28d85604051620016689190620036e7565b60405180910390a4505050565b600073ffffffffffffffffffffffffffffffffffffffff168373ffffffffffffffffffffffffffffffffffffffff1603620016ea5760006040517f01a83514000000000000000000000000000000000000000000000000000000008152600401620016e1919062003fcd565b60405180910390fd5b620017098360008484604051806020016040528060008152506200240a565b505050565b600073ffffffffffffffffffffffffffffffffffffffff168473ffffffffffffffffffffffffffffffffffffffff1603620017835760006040517f57f447ce0000000000000000000000000000000000000000000000000000000081526004016200177a919062003fcd565b60405180910390fd5b620017936000858585856200240a565b50505050565b620017a3620011ff565b73ffffffffffffffffffffffffffffffffffffffff16620017c362000b82565b73ffffffffffffffffffffffffffffffffffffffff16146200182757620017e9620011ff565b6040517f118cdaa70000000000000000000000000000000000000000000000000000000081526004016200181e919062003fcd565b60405180910390fd5b565b6000600360009054906101000a900473ffffffffffffffffffffffffffffffffffffffff16905081600360006101000a81548173ffffffffffffffffffffffffffffffffffffffff021916908373ffffffffffffffffffffffffffffffffffffffff1602179055508173ffffffffffffffffffffffffffffffffffffffff168173ffffffffffffffffffffffffffffffffffffffff167f8be0079c531659141344cd1fd0a4f28419497f9722a3daafe3b4186f6b6457e060405160405180910390a35050565b600073ffffffffffffffffffffffffffffffffffffffff168273ffffffffffffffffffffffffffffffffffffffff1603620019645760006040517fced3e1000000000000000000000000000000000000000000000000000000000081526004016200195b919062003fcd565b60405180910390fd5b80600160008573ffffffffffffffffffffffffffffffffffffffff1673ffffffffffffffffffffffffffffffffffffffff16815260200190815260200160002060008473ffffffffffffffffffffffffffffffffffffffff1673ffffffffffffffffffffffffffffffffffffffff16815260200190815260200160002060006101000a81548160ff0219169083151502179055508173ffffffffffffffffffffffffffffffffffffffff168373ffffffffffffffffffffffffffffffffffffffff167f17307eab39ab6107e8899845ad3d59bd9653f200f220920489ca2b5937696c318360405162001a579190620037b0565b60405180910390a3505050565b606060008060009050600084905060008151905060028162001a87919062004e02565b67ffffffffffffffff81111562001aa35762001aa2620038c2565b5b6040519080825280601f01601f19166020018201604052801562001ad65781602001600182028036833780820191505090505b5094506000801b93506000810362001b3c57600060f81b8560008151811062001b045762001b036200430a565b5b60200101907effffffffffffffffffffffffffffffffffffffffffffffffffffffffffffff1916908160001a90535050505062001d76565b60006001820390505b6000811062001ce0577f2e0000000000000000000000000000000000000000000000000000000000000083828151811062001b855762001b846200430a565b5b602001015160f81c60f81b7effffffffffffffffffffffffffffffffffffffffffffffffffffffffffffff19160362001c57578360f81b86600183018151811062001bd55762001bd46200430a565b5b60200101907effffffffffffffffffffffffffffffffffffffffffffffffffffffffffffff1916908160001a9053508462001c22600183018660ff1686620027769092919063ffffffff16565b60405160200162001c3592919062004e62565b6040516020818303038152906040528051906020012094506000935062001cc7565b60018401935082818151811062001c735762001c726200430a565b5b602001015160f81c60f81b86600183018151811062001c975762001c966200430a565b5b60200101907effffffffffffffffffffffffffffffffffffffffffffffffffffffffffffff1916908160001a9053505b600081031562001ce05780806001900391505062001b45565b508362001cfd60008560ff1685620027769092919063ffffffff16565b60405160200162001d1092919062004e62565b6040516020818303038152906040528051906020012093508260f81b8560008151811062001d435762001d426200430a565b5b60200101907effffffffffffffffffffffffffffffffffffffffffffffffffffffffffffff1916908160001a9053505050505b915091565b60606000602867ffffffffffffffff81111562001d9d5762001d9c620038c2565b5b6040519080825280601f01601f19166020018201604052801562001dd05781602001600182028036833780820191505090505b50905060005b601481101562001f4257600081601362001df1919062004e92565b600862001dff919062004ecd565b8573ffffffffffffffffffffffffffffffffffffffff16901c60f81b9050600060108260f81c62001e31919062004f54565b60f81b905060008160f81c601062001e4a919062004f8c565b8360f81c62001e5a919062004fd2565b60f81b905062001e6a82620027a5565b8585600262001e7a919062004ecd565b8151811062001e8e5762001e8d6200430a565b5b60200101907effffffffffffffffffffffffffffffffffffffffffffffffffffffffffffff1916908160001a90535062001ec881620027a5565b85600186600262001eda919062004ecd565b62001ee6919062004e02565b8151811062001efa5762001ef96200430a565b5b60200101907effffffffffffffffffffffffffffffffffffffffffffffffffffffffffffff1916908160001a905350505050808062001f399062004368565b91505062001dd6565b5080915050919050565b606060008290506000805b825181101562001fb95762001f8c83828151811062001f7b5762001f7a6200430a565b5b602001015160f81c60f81b620027f1565b1562001fa357818062001f9f9062004368565b9250505b808062001fb09062004368565b91505062001f57565b50600081835162001fcb919062004e02565b67ffffffffffffffff81111562001fe75762001fe6620038c2565b5b6040519080825280601f01601f1916602001820160405280156200201a5781602001600182028036833780820191505090505b5090506000805b8451811015620021df57620020568582815181106200204557620020446200430a565b5b602001015160f81c60f81b620027f1565b1562002154577f5c000000000000000000000000000000000000000000000000000000000000008383806200208b9062004368565b945081518110620020a157620020a06200430a565b5b60200101907effffffffffffffffffffffffffffffffffffffffffffffffffffffffffffff1916908160001a905350620020fb858281518110620020ea57620020e96200430a565b5b602001015160f81c60f81b620029c0565b838380620021099062004368565b9450815181106200211f576200211e6200430a565b5b60200101907effffffffffffffffffffffffffffffffffffffffffffffffffffffffffffff1916908160001a905350620021c9565b8481815181106200216a57620021696200430a565b5b602001015160f81c60f81b838380620021839062004368565b9450815181106200219957620021986200430a565b5b60200101907effffffffffffffffffffffffffffffffffffffffffffffffffffffffffffff1916908160001a9053505b8080620021d69062004368565b91505062002021565b5081945050505050919050565b606060006001620021fd8462002b24565b01905060008167ffffffffffffffff8111156200221f576200221e620038c2565b5b6040519080825280601f01601f191660200182016040528015620022525781602001600182028036833780820191505090505b509050600082602001820190505b600115620022ba578080600190039150507f3031323334353637383961626364656600000000000000000000000000000000600a86061a8153600a8581620022ad57620022ac62004f25565b5b0494506000850362002260575b819350505050919050565b6060620022ee826040518060600160405280604081526020016200568260409139600162002c90565b9050919050565b600073ffffffffffffffffffffffffffffffffffffffff168473ffffffffffffffffffffffffffffffffffffffff16036200236a5760006040517f57f447ce00000000000000000000000000000000000000000000000000000000815260040162002361919062003fcd565b60405180910390fd5b600073ffffffffffffffffffffffffffffffffffffffff168573ffffffffffffffffffffffffffffffffffffffff1603620023df5760006040517f01a83514000000000000000000000000000000000000000000000000000000008152600401620023d6919062003fcd565b60405180910390fd5b600080620023ee858562002e3f565b915091506200240187878484876200240a565b50505050505050565b620024188585858562002e6f565b600073ffffffffffffffffffffffffffffffffffffffff168473ffffffffffffffffffffffffffffffffffffffff1614620024c457600062002459620011ff565b90506001845103620024b15760006200247d6000866200131b90919063ffffffff16565b90506000620024976000866200131b90919063ffffffff16565b9050620024a98389898585896200323b565b5050620024c2565b620024c1818787878787620033fe565b5b505b5050505050565b6000620024d884620035c1565b82841802821890509392505050565b6000620024f484620025bb565b90506000620025038462002698565b90507f000000000000000000000000000000000000000000000000000000000000000073ffffffffffffffffffffffffffffffffffffffff166323b872dd8383866040518463ffffffff1660e01b8152600401620025649392919062004d7c565b6020604051808303816000875af115801562002584573d6000803e3d6000fd5b505050506040513d601f19601f82011682018060405250810190620025aa919062004dd0565b620025b457600080fd5b5050505050565b60008060405180602001620025d090620035cd565b6020820181038252601f19601f820116604052507f000000000000000000000000000000000000000000000000000000000000000084604051602001620026199291906200500e565b6040516020818303038152906040526040516020016200263b9291906200507d565b6040516020818303038152906040529050600060ff60f81b30600084805190602001206040516020016200267394939291906200511b565b6040516020818303038152906040528051906020012090508060001c92505050919050565b600080620026a683620025bb565b90506000813b9050600081036200276c576000801b7f000000000000000000000000000000000000000000000000000000000000000085604051620026eb90620035cd565b620026f89291906200500e565b8190604051809103906000f590508015801562002719573d6000803e3d6000fd5b50508373ffffffffffffffffffffffffffffffffffffffff167f3d2489efb661e8b1c3679865db649ca1de61d76a71184a1234de2e55786a6aad8360405162002763919062003fcd565b60405180910390a25b8192505050919050565b60008351828462002788919062004e02565b11156200279457600080fd5b818360208601012090509392505050565b6000600a8260f81c60ff161015620027d45760308260f81c620027c9919062005171565b60f81b9050620027ec565b60578260f81c620027e6919062005171565b60f81b90505b919050565b60007f2200000000000000000000000000000000000000000000000000000000000000827effffffffffffffffffffffffffffffffffffffffffffffffffffffffffffff191614806200288557507f2f00000000000000000000000000000000000000000000000000000000000000827effffffffffffffffffffffffffffffffffffffffffffffffffffffffffffff1916145b80620028d257507f5c00000000000000000000000000000000000000000000000000000000000000827effffffffffffffffffffffffffffffffffffffffffffffffffffffffffffff1916145b806200291f57507f0a00000000000000000000000000000000000000000000000000000000000000827effffffffffffffffffffffffffffffffffffffffffffffffffffffffffffff1916145b806200296c57507f0d00000000000000000000000000000000000000000000000000000000000000827effffffffffffffffffffffffffffffffffffffffffffffffffffffffffffff1916145b80620029b957507f0900000000000000000000000000000000000000000000000000000000000000827effffffffffffffffffffffffffffffffffffffffffffffffffffffffffffff1916145b9050919050565b60007f0a00000000000000000000000000000000000000000000000000000000000000827effffffffffffffffffffffffffffffffffffffffffffffffffffffffffffff19160362002a35577f6e00000000000000000000000000000000000000000000000000000000000000905062002b1f565b7f0d00000000000000000000000000000000000000000000000000000000000000827effffffffffffffffffffffffffffffffffffffffffffffffffffffffffffff19160362002aa8577f7200000000000000000000000000000000000000000000000000000000000000905062002b1f565b7f0900000000000000000000000000000000000000000000000000000000000000827effffffffffffffffffffffffffffffffffffffffffffffffffffffffffffff19160362002b1b577f7400000000000000000000000000000000000000000000000000000000000000905062002b1f565b8190505b919050565b600080600090507a184f03e93ff9f4daa797ed6e38ed64bf6a1f010000000000000000831062002b86577a184f03e93ff9f4daa797ed6e38ed64bf6a1f010000000000000000838162002b7c5762002b7b62004f25565b5b0492506040810190505b6d04ee2d6d415b85acef8100000000831062002bc7576d04ee2d6d415b85acef8100000000838162002bbd5762002bbc62004f25565b5b0492506020810190505b662386f26fc10000831062002bfa57662386f26fc10000838162002bf05762002bef62004f25565b5b0492506010810190505b6305f5e100831062002c27576305f5e100838162002c1d5762002c1c62004f25565b5b0492506008810190505b612710831062002c5057612710838162002c465762002c4562004f25565b5b0492506004810190505b6064831062002c77576064838162002c6d5762002c6c62004f25565b5b0492506002810190505b600a831062002c87576001810190505b80915050919050565b6060600084510362002cb45760405180602001604052806000815250905062002e38565b60008262002cee57600360028651600462002cd0919062004ecd565b62002cdc919062004e02565b62002ce89190620051ad565b62002d1b565b60036002865162002d00919062004e02565b62002d0c9190620051ad565b600462002d1a919062004ecd565b5b905060008167ffffffffffffffff81111562002d3c5762002d3b620038c2565b5b6040519080825280601f01601f19166020018201604052801562002d6f5781602001600182028036833780820191505090505b50905060018501602082018788518901602081018051600082525b8284101562002de7576003840193508351603f8160121c168701518653600186019550603f81600c1c168701518653600186019550603f8160061c168701518653600186019550603f811687015186536001860195505062002d8a565b808252891562002e2c5760038c51066001811462002e0e576002811462002e225762002e2a565b603d6001870353603d600287035362002e2a565b603d60018703535b505b50505050505080925050505b9392505050565b60608060405191506001825283602083015260408201905060018152826020820152604081016040529250929050565b805182511462002ebc57815181516040517f5b05999100000000000000000000000000000000000000000000000000000000815260040162002eb3929190620042dd565b60405180910390fd5b600062002ec8620011ff565b905060005b8351811015620030ec57600062002eee82866200131b90919063ffffffff16565b9050600062002f0783866200131b90919063ffffffff16565b9050600073ffffffffffffffffffffffffffffffffffffffff168873ffffffffffffffffffffffffffffffffffffffff16146200303857600080600084815260200190815260200160002060008a73ffffffffffffffffffffffffffffffffffffffff1673ffffffffffffffffffffffffffffffffffffffff1681526020019081526020016000205490508181101562002fe057888183856040517f03dee4c500000000000000000000000000000000000000000000000000000000815260040162002fd79493929190620051e5565b60405180910390fd5b81810360008085815260200190815260200160002060008b73ffffffffffffffffffffffffffffffffffffffff1673ffffffffffffffffffffffffffffffffffffffff16815260200190815260200160002081905550505b600073ffffffffffffffffffffffffffffffffffffffff168773ffffffffffffffffffffffffffffffffffffffff1614620030d6578060008084815260200190815260200160002060008973ffffffffffffffffffffffffffffffffffffffff1673ffffffffffffffffffffffffffffffffffffffff1681526020019081526020016000206000828254620030ce919062004e02565b925050819055505b505080620030e49062004368565b905062002ecd565b506001835103620031b35760006200310f6000856200131b90919063ffffffff16565b90506000620031296000856200131b90919063ffffffff16565b90508573ffffffffffffffffffffffffffffffffffffffff168773ffffffffffffffffffffffffffffffffffffffff168473ffffffffffffffffffffffffffffffffffffffff167fc3d58168c5ae7397731d063d5bbf3d657854427343f4c083240f7aacaa2d0f628585604051620031a3929190620042dd565b60405180910390a4505062003234565b8373ffffffffffffffffffffffffffffffffffffffff168573ffffffffffffffffffffffffffffffffffffffff168273ffffffffffffffffffffffffffffffffffffffff167f4a39dc06d4c0dbc64b70af90fd698a233a518aa5d07e595d983b8c0526c8f7fb86866040516200322b92919062005232565b60405180910390a45b5050505050565b60008473ffffffffffffffffffffffffffffffffffffffff163b1115620033f6578373ffffffffffffffffffffffffffffffffffffffff1663f23a6e6187878686866040518663ffffffff1660e01b81526004016200329f9594939291906200526d565b6020604051808303816000875af1925050508015620032de57506040513d601f19601f82011682018060405250810190620032db9190620052e8565b60015b62003368573d806000811462003311576040519150601f19603f3d011682016040523d82523d6000602084013e62003316565b606091505b5060008151036200336057846040517f57f447ce00000000000000000000000000000000000000000000000000000000815260040162003357919062003fcd565b60405180910390fd5b805181602001fd5b63f23a6e6160e01b7bffffffffffffffffffffffffffffffffffffffffffffffffffffffff1916817bffffffffffffffffffffffffffffffffffffffffffffffffffffffff191614620033f457846040517f57f447ce000000000000000000000000000000000000000000000000000000008152600401620033eb919062003fcd565b60405180910390fd5b505b505050505050565b60008473ffffffffffffffffffffffffffffffffffffffff163b1115620035b9578373ffffffffffffffffffffffffffffffffffffffff1663bc197c8187878686866040518663ffffffff1660e01b8152600401620034629594939291906200531a565b6020604051808303816000875af1925050508015620034a157506040513d601f19601f820116820180604052508101906200349e9190620052e8565b60015b6200352b573d8060008114620034d4576040519150601f19603f3d011682016040523d82523d6000602084013e620034d9565b606091505b5060008151036200352357846040517f57f447ce0000000000000000000000000000000000000000000000000000000081526004016200351a919062003fcd565b60405180910390fd5b805181602001fd5b63bc197c8160e01b7bffffffffffffffffffffffffffffffffffffffffffffffffffffffff1916817bffffffffffffffffffffffffffffffffffffffffffffffffffffffff191614620035b757846040517f57f447ce000000000000000000000000000000000000000000000000000000008152600401620035ae919062003fcd565b60405180910390fd5b505b505050505050565b60008115159050919050565b6102f5806200538d83390190565b6000604051905090565b600080fd5b600080fd5b600073ffffffffffffffffffffffffffffffffffffffff82169050919050565b60006200361c82620035ef565b9050919050565b6200362e816200360f565b81146200363a57600080fd5b50565b6000813590506200364e8162003623565b92915050565b6000819050919050565b620036698162003654565b81146200367557600080fd5b50565b60008135905062003689816200365e565b92915050565b60008060408385031215620036a957620036a8620035e5565b5b6000620036b9858286016200363d565b9250506020620036cc8582860162003678565b9150509250929050565b620036e18162003654565b82525050565b6000602082019050620036fe6000830184620036d6565b92915050565b60007fffffffff0000000000000000000000000000000000000000000000000000000082169050919050565b6200373b8162003704565b81146200374757600080fd5b50565b6000813590506200375b8162003730565b92915050565b6000602082840312156200377a5762003779620035e5565b5b60006200378a848285016200374a565b91505092915050565b60008115159050919050565b620037aa8162003793565b82525050565b6000602082019050620037c760008301846200379f565b92915050565b600060208284031215620037e657620037e5620035e5565b5b6000620037f68482850162003678565b91505092915050565b600081519050919050565b600082825260208201905092915050565b60005b838110156200383b5780820151818401526020810190506200381e565b60008484015250505050565b6000601f19601f8301169050919050565b60006200386582620037ff565b6200387181856200380a565b9350620038838185602086016200381b565b6200388e8162003847565b840191505092915050565b60006020820190508181036000830152620038b5818462003858565b905092915050565b600080fd5b7f4e487b7100000000000000000000000000000000000000000000000000000000600052604160045260246000fd5b620038fc8262003847565b810181811067ffffffffffffffff821117156200391e576200391d620038c2565b5b80604052505050565b600062003933620035db565b9050620039418282620038f1565b919050565b600067ffffffffffffffff821115620039645762003963620038c2565b5b602082029050602081019050919050565b600080fd5b6000620039916200398b8462003946565b62003927565b90508083825260208201905060208402830185811115620039b757620039b662003975565b5b835b81811015620039e45780620039cf888262003678565b845260208401935050602081019050620039b9565b5050509392505050565b600082601f83011262003a065762003a05620038bd565b5b813562003a188482602086016200397a565b91505092915050565b600080fd5b600067ffffffffffffffff82111562003a445762003a43620038c2565b5b62003a4f8262003847565b9050602081019050919050565b82818337600083830152505050565b600062003a8262003a7c8462003a26565b62003927565b90508281526020810184848401111562003aa15762003aa062003a21565b5b62003aae84828562003a5c565b509392505050565b600082601f83011262003ace5762003acd620038bd565b5b813562003ae084826020860162003a6b565b91505092915050565b600080600080600060a0868803121562003b085762003b07620035e5565b5b600062003b18888289016200363d565b955050602062003b2b888289016200363d565b945050604086013567ffffffffffffffff81111562003b4f5762003b4e620035ea565b5b62003b5d88828901620039ee565b935050606086013567ffffffffffffffff81111562003b815762003b80620035ea565b5b62003b8f88828901620039ee565b925050608086013567ffffffffffffffff81111562003bb35762003bb2620035ea565b5b62003bc18882890162003ab6565b9150509295509295909350565b600067ffffffffffffffff82111562003bec5762003beb620038c2565b5b602082029050602081019050919050565b600062003c1462003c0e8462003bce565b62003927565b9050808382526020820190506020840283018581111562003c3a5762003c3962003975565b5b835b8181101562003c67578062003c5288826200363d565b84526020840193505060208101905062003c3c565b5050509392505050565b600082601f83011262003c895762003c88620038bd565b5b813562003c9b84826020860162003bfd565b91505092915050565b6000806040838503121562003cbe5762003cbd620035e5565b5b600083013567ffffffffffffffff81111562003cdf5762003cde620035ea565b5b62003ced8582860162003c71565b925050602083013567ffffffffffffffff81111562003d115762003d10620035ea565b5b62003d1f85828601620039ee565b9150509250929050565b600081519050919050565b600082825260208201905092915050565b6000819050602082019050919050565b62003d608162003654565b82525050565b600062003d74838362003d55565b60208301905092915050565b6000602082019050919050565b600062003d9a8262003d29565b62003da6818562003d34565b935062003db38362003d45565b8060005b8381101562003dea57815162003dce888262003d66565b975062003ddb8362003d80565b92505060018101905062003db7565b5085935050505092915050565b6000602082019050818103600083015262003e13818462003d8d565b905092915050565b600080fd5b60008083601f84011262003e395762003e38620038bd565b5b8235905067ffffffffffffffff81111562003e595762003e5862003e1b565b5b60208301915083602082028301111562003e785762003e7762003975565b5b9250929050565b6000806000806000806060878903121562003e9f5762003e9e620035e5565b5b600087013567ffffffffffffffff81111562003ec05762003ebf620035ea565b5b62003ece89828a0162003e20565b9650965050602087013567ffffffffffffffff81111562003ef45762003ef3620035ea565b5b62003f0289828a0162003e20565b9450945050604087013567ffffffffffffffff81111562003f285762003f27620035ea565b5b62003f3689828a0162003e20565b92509250509295509295509295565b600062003f52826200360f565b9050919050565b62003f648162003f45565b811462003f7057600080fd5b50565b60008135905062003f848162003f59565b92915050565b60006020828403121562003fa35762003fa2620035e5565b5b600062003fb38482850162003f73565b91505092915050565b62003fc7816200360f565b82525050565b600060208201905062003fe4600083018462003fbc565b92915050565b6000819050919050565b6000620040156200400f6200400984620035ef565b62003fea565b620035ef565b9050919050565b6000620040298262003ff4565b9050919050565b60006200403d826200401c565b9050919050565b6200404f8162004030565b82525050565b60006020820190506200406c600083018462004044565b92915050565b6200407d8162003793565b81146200408957600080fd5b50565b6000813590506200409d8162004072565b92915050565b60008060408385031215620040bd57620040bc620035e5565b5b6000620040cd858286016200363d565b9250506020620040e0858286016200408c565b9150509250929050565b60008060408385031215620041045762004103620035e5565b5b600062004114858286016200363d565b925050602062004127858286016200363d565b9150509250929050565b600080600080600060a0868803121562004150576200414f620035e5565b5b600062004160888289016200363d565b955050602062004173888289016200363d565b9450506040620041868882890162003678565b9350506060620041998882890162003678565b925050608086013567ffffffffffffffff811115620041bd57620041bc620035ea565b5b620041cb8882890162003ab6565b9150509295509295909350565b600060208284031215620041f157620041f0620035e5565b5b600062004201848285016200363d565b91505092915050565b600062004217826200401c565b9050919050565b62004229816200420a565b82525050565b60006020820190506200424660008301846200421e565b92915050565b7f4e487b7100000000000000000000000000000000000000000000000000000000600052602260045260246000fd5b600060028204905060018216806200429457607f821691505b602082108103620042aa57620042a96200424c565b5b50919050565b6000604082019050620042c7600083018562003fbc565b620042d6602083018462003fbc565b9392505050565b6000604082019050620042f46000830185620036d6565b620043036020830184620036d6565b9392505050565b7f4e487b7100000000000000000000000000000000000000000000000000000000600052603260045260246000fd5b7f4e487b7100000000000000000000000000000000000000000000000000000000600052601160045260246000fd5b6000620043758262003654565b91507fffffffffffffffffffffffffffffffffffffffffffffffffffffffffffffffff8203620043aa57620043a962004339565b5b600182019050919050565b7f44656c65676174653a20596f752073686f756c642070726f766964652061742060008201527f6c65617374206f6e6520736f75726365206f72206f6e6520746172676574206460208201527f656c656761746500000000000000000000000000000000000000000000000000604082015250565b6000620044396047836200380a565b91506200444682620043b5565b606082019050919050565b600060208201905081810360008301526200446c816200442a565b9050919050565b7f44656c65676174653a20546865206e756d626572206f6620616d6f756e74732060008201527f6d75737420626520657175616c20746f207468652067726561746572206f662060208201527f746865206e756d626572206f6620736f7572636573206f722074617267657473604082015250565b6000620044f76060836200380a565b9150620045048262004473565b606082019050919050565b600060208201905081810360008301526200452a81620044e8565b9050919050565b600080fd5b600080fd5b6000808585111562004552576200455162004531565b5b8386111562004566576200456562004536565b5b6020850283019150848603905094509492505050565b60008160601b9050919050565b600062004596826200457c565b9050919050565b6000620045aa8262004589565b9050919050565b620045c6620045c0826200360f565b6200459d565b82525050565b6000620045da8284620045b1565b60148201915081905092915050565b600081519050919050565b600082825260208201905092915050565b60006200461282620045e9565b6200461e8185620045f4565b9350620046308185602086016200381b565b6200463b8162003847565b840191505092915050565b6000819050919050565b6000620046716200466b620046658462004646565b62003fea565b62003654565b9050919050565b620046838162004650565b82525050565b60006040820190508181036000830152620046a5818562004605565b9050620046b6602083018462004678565b9392505050565b600067ffffffffffffffff821115620046db57620046da620038c2565b5b620046e68262003847565b9050602081019050919050565b60006200470a6200470484620046bd565b62003927565b90508281526020810184848401111562004729576200472862003a21565b5b620047368482856200381b565b509392505050565b600082601f830112620047565762004755620038bd565b5b815162004768848260208601620046f3565b91505092915050565b600081519050620047828162003623565b92915050565b600080600060608486031215620047a457620047a3620035e5565b5b600084015167ffffffffffffffff811115620047c557620047c4620035ea565b5b620047d3868287016200473e565b9350506020620047e68682870162004771565b9250506040620047f98682870162004771565b9150509250925092565b6000819050919050565b620048188162004803565b82525050565b7f6176617461720000000000000000000000000000000000000000000000000000600082015250565b6000620048566006836200380a565b915062004863826200481e565b602082019050919050565b60006040820190506200488560008301846200480d565b8181036020830152620048988162004847565b905092915050565b60006040820190508181036000830152620048bc818562004605565b90508181036020830152620048d2818462004605565b90509392505050565b6000620048f2620048ec8462003a26565b62003927565b90508281526020810184848401111562004911576200491062003a21565b5b6200491e8482856200381b565b509392505050565b600082601f8301126200493e576200493d620038bd565b5b815162004950848260208601620048db565b91505092915050565b60008060408385031215620049735762004972620035e5565b5b600083015167ffffffffffffffff811115620049945762004993620035ea565b5b620049a28582860162004926565b9250506020620049b58582860162004771565b9150509250929050565b600060208284031215620049d857620049d7620035e5565b5b600082015167ffffffffffffffff811115620049f957620049f8620035ea565b5b62004a07848285016200473e565b91505092915050565b7f3078000000000000000000000000000000000000000000000000000000000000815250565b600081905092915050565b600062004a4e82620037ff565b62004a5a818562004a36565b935062004a6c8185602086016200381b565b80840191505092915050565b600062004a858262004a10565b60028201915062004a97828462004a41565b915081905092915050565b7f7b226e616d65223a202200000000000000000000000000000000000000000000815250565b7f2044656c656761746520546f6b656e0000000000000000000000000000000000815250565b7f222c2022746f6b656e5f6964223a202200000000000000000000000000000000815250565b7f222c20226465736372697074696f6e223a202254686973204e4654207265707260008201527f6573656e747320616e20454e5320746f6b656e2064656c65676174656420746f60208201527f2000000000000000000000000000000000000000000000000000000000000000604082015250565b600062004b9860418362004a36565b915062004ba58262004b14565b604182019050919050565b7f222c2022696d616765223a202200000000000000000000000000000000000000815250565b7f227d000000000000000000000000000000000000000000000000000000000000815250565b600062004c098262004aa2565b600a8201915062004c1b828762004a41565b915062004c288262004ac8565b600f8201915062004c398262004aee565b60108201915062004c4b828662004a41565b915062004c588262004b89565b915062004c66828562004a41565b915062004c738262004bb0565b600d8201915062004c85828462004a41565b915062004c928262004bd6565b60028201915081905095945050505050565b600062004cb18262004aa2565b600a8201915062004cc3828662004a41565b915062004cd08262004ac8565b600f8201915062004ce18262004aee565b60108201915062004cf3828562004a41565b915062004d008262004b89565b915062004d0e828462004a41565b915062004d1b8262004bd6565b600282019150819050949350505050565b7f646174613a6170706c69636174696f6e2f6a736f6e3b6261736536342c000000815250565b600062004d5f8262004d2c565b601d8201915062004d71828462004a41565b915081905092915050565b600060608201905062004d93600083018662003fbc565b62004da2602083018562003fbc565b62004db16040830184620036d6565b949350505050565b60008151905062004dca8162004072565b92915050565b60006020828403121562004de95762004de8620035e5565b5b600062004df98482850162004db9565b91505092915050565b600062004e0f8262003654565b915062004e1c8362003654565b925082820190508082111562004e375762004e3662004339565b5b92915050565b6000819050919050565b62004e5c62004e568262004803565b62004e3d565b82525050565b600062004e70828562004e47565b60208201915062004e82828462004e47565b6020820191508190509392505050565b600062004e9f8262003654565b915062004eac8362003654565b925082820390508181111562004ec75762004ec662004339565b5b92915050565b600062004eda8262003654565b915062004ee78362003654565b925082820262004ef78162003654565b9150828204841483151762004f115762004f1062004339565b5b5092915050565b600060ff82169050919050565b7f4e487b7100000000000000000000000000000000000000000000000000000000600052601260045260246000fd5b600062004f618262004f18565b915062004f6e8362004f18565b92508262004f815762004f8062004f25565b5b828204905092915050565b600062004f998262004f18565b915062004fa68362004f18565b925082820262004fb68162004f18565b915080821462004fcb5762004fca62004339565b5b5092915050565b600062004fdf8262004f18565b915062004fec8362004f18565b9250828203905060ff81111562005008576200500762004339565b5b92915050565b60006040820190506200502560008301856200421e565b62005034602083018462003fbc565b9392505050565b600081905092915050565b60006200505382620045e9565b6200505f81856200503b565b9350620050718185602086016200381b565b80840191505092915050565b60006200508b828562005046565b915062005099828462005046565b91508190509392505050565b60007fff0000000000000000000000000000000000000000000000000000000000000082169050919050565b6000819050919050565b620050f0620050ea82620050a5565b620050d1565b82525050565b6000819050919050565b620051156200510f8262003654565b620050f6565b82525050565b6000620051298287620050db565b6001820191506200513b8286620045b1565b6014820191506200514d828562005100565b6020820191506200515f828462004e47565b60208201915081905095945050505050565b60006200517e8262004f18565b91506200518b8362004f18565b9250828201905060ff811115620051a757620051a662004339565b5b92915050565b6000620051ba8262003654565b9150620051c78362003654565b925082620051da57620051d962004f25565b5b828204905092915050565b6000608082019050620051fc600083018762003fbc565b6200520b6020830186620036d6565b6200521a6040830185620036d6565b620052296060830184620036d6565b95945050505050565b600060408201905081810360008301526200524e818562003d8d565b9050818103602083015262005264818462003d8d565b90509392505050565b600060a08201905062005284600083018862003fbc565b62005293602083018762003fbc565b620052a26040830186620036d6565b620052b16060830185620036d6565b8181036080830152620052c5818462004605565b90509695505050505050565b600081519050620052e28162003730565b92915050565b600060208284031215620053015762005300620035e5565b5b60006200531184828501620052d1565b91505092915050565b600060a08201905062005331600083018862003fbc565b62005340602083018762003fbc565b818103604083015262005354818662003d8d565b905081810360608301526200536a818562003d8d565b9050818103608083015262005380818462004605565b9050969550505050505056fe60806040526040516102f53803806102f5833981810160405281019061002591906101e3565b8173ffffffffffffffffffffffffffffffffffffffff1663095ea7b3337fffffffffffffffffffffffffffffffffffffffffffffffffffffffffffffffff6040518363ffffffff1660e01b815260040161008092919061024b565b6020604051808303816000875af115801561009f573d6000803e3d6000fd5b505050506040513d601f19601f820116820180604052508101906100c391906102ac565b6100cc57600080fd5b8173ffffffffffffffffffffffffffffffffffffffff16635c19a95c826040518263ffffffff1660e01b815260040161010591906102d9565b600060405180830381600087803b15801561011f57600080fd5b505af1158015610133573d6000803e3d6000fd5b5050505060ff60005360016000f35b600080fd5b600073ffffffffffffffffffffffffffffffffffffffff82169050919050565b600061017282610147565b9050919050565b600061018482610167565b9050919050565b61019481610179565b811461019f57600080fd5b50565b6000815190506101b18161018b565b92915050565b6101c081610167565b81146101cb57600080fd5b50565b6000815190506101dd816101b7565b92915050565b600080604083850312156101fa576101f9610142565b5b6000610208858286016101a2565b9250506020610219858286016101ce565b9150509250929050565b61022c81610167565b82525050565b6000819050919050565b61024581610232565b82525050565b60006040820190506102606000830185610223565b61026d602083018461023c565b9392505050565b60008115159050919050565b61028981610274565b811461029457600080fd5b50565b6000815190506102a681610280565b92915050565b6000602082840312156102c2576102c1610142565b5b60006102d084828501610297565b91505092915050565b60006020820190506102ee6000830184610223565b9291505056fe4142434445464748494a4b4c4d4e4f505152535455565758595a6162636465666768696a6b6c6d6e6f707172737475767778797a303132333435363738392b2fa264697066735822122017341d17c848177c7fa8aa7b6d4f79686b4fa8f75f86095637706fc1e76d304f64736f6c63430008150033",
  "devdoc": {
    "details": "A utility contract to let delegators to pick multiple delegate",
    "errors": {
      "ERC1155InsufficientBalance(address,uint256,uint256,uint256)": [
        {
          "details": "Indicates an error related to the current `balance` of a `sender`. Used in transfers.",
          "params": {
            "balance": "Current balance for the interacting account.",
            "needed": "Minimum amount required to perform a transfer.",
            "sender": "Address whose tokens are being transferred.",
            "tokenId": "Identifier number of a token."
          }
        }
      ],
      "ERC1155InvalidApprover(address)": [
        {
          "details": "Indicates a failure with the `approver` of a token to be approved. Used in approvals.",
          "params": {
            "approver": "Address initiating an approval operation."
          }
        }
      ],
      "ERC1155InvalidArrayLength(uint256,uint256)": [
        {
          "details": "Indicates an array length mismatch between ids and values in a safeBatchTransferFrom operation. Used in batch transfers.",
          "params": {
            "idsLength": "Length of the array of token identifiers",
            "valuesLength": "Length of the array of token amounts"
          }
        }
      ],
      "ERC1155InvalidOperator(address)": [
        {
          "details": "Indicates a failure with the `operator` to be approved. Used in approvals.",
          "params": {
            "operator": "Address that may be allowed to operate on tokens without being their owner."
          }
        }
      ],
      "ERC1155InvalidReceiver(address)": [
        {
          "details": "Indicates a failure with the token `receiver`. Used in transfers.",
          "params": {
            "receiver": "Address to which tokens are being transferred."
          }
        }
      ],
      "ERC1155InvalidSender(address)": [
        {
          "details": "Indicates a failure with the token `sender`. Used in transfers.",
          "params": {
            "sender": "Address whose tokens are being transferred."
          }
        }
      ],
      "ERC1155MissingApprovalForAll(address,address)": [
        {
          "details": "Indicates a failure with the `operator`s approval. Used in transfers.",
          "params": {
            "operator": "Address that may be allowed to operate on tokens without being their owner.",
            "owner": "Address of the current owner of a token."
          }
        }
      ],
      "OwnableInvalidOwner(address)": [
        {
          "details": "The owner is not a valid owner account. (eg. `address(0)`)"
        }
      ],
      "OwnableUnauthorizedAccount(address)": [
        {
          "details": "The caller account is not authorized to perform an operation."
        }
      ]
    },
    "events": {
      "ApprovalForAll(address,address,bool)": {
        "details": "Emitted when `account` grants or revokes permission to `operator` to transfer their tokens, according to `approved`."
      },
      "TransferBatch(address,address,address,uint256[],uint256[])": {
        "details": "Equivalent to multiple {TransferSingle} events, where `operator`, `from` and `to` are the same for all transfers."
      },
      "TransferSingle(address,address,address,uint256,uint256)": {
        "details": "Emitted when `value` amount of tokens of type `id` are transferred from `from` to `to` by `operator`."
      },
      "URI(string,uint256)": {
        "details": "Emitted when the URI for token type `id` changes to `value`, if it is a non-programmatic URI. If an {URI} event was emitted for `id`, the standard https://eips.ethereum.org/EIPS/eip-1155#metadata-extensions[guarantees] that `value` will equal the value returned by {IERC1155MetadataURI-uri}."
      }
    },
    "kind": "dev",
    "methods": {
      "balanceOf(address,uint256)": {
        "details": "See {IERC1155-balanceOf}."
      },
      "balanceOfBatch(address[],uint256[])": {
        "details": "See {IERC1155-balanceOfBatch}. Requirements: - `accounts` and `ids` must have the same length."
      },
      "constructor": {
        "details": "Constructor.",
        "params": {
          "_metadataResolver": "The Universal Resolver address",
          "_token": "The ERC20 token address"
        }
      },
      "delegateMulti(uint256[],uint256[],uint256[])": {
        "details": "Executes the delegation transfer process for multiple source and target delegates.",
        "params": {
          "amounts": "The list of amounts to deposit/withdraw.   When calling this function, ERC1155 tokens are minted to the caller for the targets.   As per the ERC1155 standard, the recipient should either be an Externally Owned Account   (EOA), or a contract that implements `ERC1155Holder`. Failure to meet these conditions   will result in the transaction reverting. This may cause unintended reverts for multi-signature   wallets or other interacting contracts. Limitations: - The function performs `_burnBatch` before `_mintBatch`, which means that the function   will revert if the total amount being removed from a source is greater than the amount   being added to it within the same transaction. Example: If Bob has delegated 100 tokens to Alice and 100 tokens to Charlie, and then attempts to delegate by moving 100 from Alice to Charlie and then 200 from Charlie to Eve, the transaction will revert. This is because `_burnBatch` will try to remove 200 tokens from Charlie before adding the 100 tokens from Alice.",
          "sources": "The list of source delegates.",
          "targets": "The list of target delegates."
        }
      },
      "isApprovedForAll(address,address)": {
        "details": "See {IERC1155-isApprovedForAll}."
      },
      "owner()": {
        "details": "Returns the address of the current owner."
      },
      "renounceOwnership()": {
        "details": "Leaves the contract without owner. It will not be possible to call `onlyOwner` functions. Can only be called by the current owner. NOTE: Renouncing ownership will leave the contract without an owner, thereby disabling any functionality that is only available to the owner."
      },
      "safeBatchTransferFrom(address,address,uint256[],uint256[],bytes)": {
        "details": "See {IERC1155-safeBatchTransferFrom}."
      },
      "safeTransferFrom(address,address,uint256,uint256,bytes)": {
        "details": "See {IERC1155-safeTransferFrom}."
      },
      "setApprovalForAll(address,bool)": {
        "details": "See {IERC1155-setApprovalForAll}."
      },
      "supportsInterface(bytes4)": {
        "details": "See {IERC165-supportsInterface}."
      },
      "tokenURI(uint256)": {
        "details": "Generates an onchain metadata for a given tokenId.",
        "params": {
          "tokenId": "The token ID (address) of the delegate."
        },
        "returns": {
          "_0": "Onchain metadata in base64 format \"data:application/json;base64,<encoded-json>\"."
        }
      },
      "transferOwnership(address)": {
        "details": "Transfers ownership of the contract to a new account (`newOwner`). Can only be called by the current owner."
      },
      "uri(uint256)": {
        "details": "See {IERC1155MetadataURI-uri}. This implementation returns the same URI for *all* token types. It relies on the token type ID substitution mechanism https://eips.ethereum.org/EIPS/eip-1155#metadata[defined in the ERC]. Clients calling this function must replace the `\\{id\\}` substring with the actual token type ID."
      }
    },
    "version": 1
  },
  "userdoc": {
    "events": {
      "MetadataURIUpdated(string)": {
        "notice": "### EVENTS ### "
      }
    },
    "kind": "user",
    "methods": {},
    "version": 1
  },
  "storageLayout": {
    "storage": [
      {
        "astId": 3002,
        "contract": "contracts/ERC20MultiDelegate.sol:ERC20MultiDelegate",
        "label": "_balances",
        "offset": 0,
        "slot": "0",
        "type": "t_mapping(t_uint256,t_mapping(t_address,t_uint256))"
      },
      {
        "astId": 3008,
        "contract": "contracts/ERC20MultiDelegate.sol:ERC20MultiDelegate",
        "label": "_operatorApprovals",
        "offset": 0,
        "slot": "1",
        "type": "t_mapping(t_address,t_mapping(t_address,t_bool))"
      },
      {
        "astId": 3010,
        "contract": "contracts/ERC20MultiDelegate.sol:ERC20MultiDelegate",
        "label": "_uri",
        "offset": 0,
        "slot": "2",
        "type": "t_string_storage"
      },
      {
        "astId": 2007,
        "contract": "contracts/ERC20MultiDelegate.sol:ERC20MultiDelegate",
        "label": "_owner",
        "offset": 0,
        "slot": "3",
        "type": "t_address"
      },
      {
        "astId": 13953,
        "contract": "contracts/ERC20MultiDelegate.sol:ERC20MultiDelegate",
        "label": "metadataResolver",
        "offset": 0,
        "slot": "4",
        "type": "t_contract(IUniversalResolver)77"
      }
    ],
    "types": {
      "t_address": {
        "encoding": "inplace",
        "label": "address",
        "numberOfBytes": "20"
      },
      "t_bool": {
        "encoding": "inplace",
        "label": "bool",
        "numberOfBytes": "1"
      },
      "t_contract(IUniversalResolver)77": {
        "encoding": "inplace",
        "label": "contract IUniversalResolver",
        "numberOfBytes": "20"
      },
      "t_mapping(t_address,t_bool)": {
        "encoding": "mapping",
        "key": "t_address",
        "label": "mapping(address => bool)",
        "numberOfBytes": "32",
        "value": "t_bool"
      },
      "t_mapping(t_address,t_mapping(t_address,t_bool))": {
        "encoding": "mapping",
        "key": "t_address",
        "label": "mapping(address => mapping(address => bool))",
        "numberOfBytes": "32",
        "value": "t_mapping(t_address,t_bool)"
      },
      "t_mapping(t_address,t_uint256)": {
        "encoding": "mapping",
        "key": "t_address",
        "label": "mapping(address => uint256)",
        "numberOfBytes": "32",
        "value": "t_uint256"
      },
      "t_mapping(t_uint256,t_mapping(t_address,t_uint256))": {
        "encoding": "mapping",
        "key": "t_uint256",
        "label": "mapping(uint256 => mapping(address => uint256))",
        "numberOfBytes": "32",
        "value": "t_mapping(t_address,t_uint256)"
      },
      "t_string_storage": {
        "encoding": "bytes",
        "label": "string",
        "numberOfBytes": "32"
      },
      "t_uint256": {
        "encoding": "inplace",
        "label": "uint256",
        "numberOfBytes": "32"
      }
    }
  }
}