{
  "address": "0xd7A029Db2585553978190dB5E85eC724Aa4dF23f",
  "abi": [
    {
      "inputs": [
        {
          "internalType": "contract ERC20",
          "name": "_token",
          "type": "address"
        },
        {
          "internalType": "uint256",
          "name": "_unlockBegin",
          "type": "uint256"
        },
        {
          "internalType": "uint256",
          "name": "_unlockCliff",
          "type": "uint256"
        },
        {
          "internalType": "uint256",
          "name": "_unlockEnd",
          "type": "uint256"
        }
      ],
      "stateMutability": "nonpayable",
      "type": "constructor"
    },
    {
      "anonymous": false,
      "inputs": [
        {
          "indexed": true,
          "internalType": "address",
          "name": "owner",
          "type": "address"
        },
        {
          "indexed": true,
          "internalType": "address",
          "name": "recipient",
          "type": "address"
        },
        {
          "indexed": false,
          "internalType": "uint256",
          "name": "amount",
          "type": "uint256"
        }
      ],
      "name": "Claimed",
      "type": "event"
    },
    {
      "anonymous": false,
      "inputs": [
        {
          "indexed": true,
          "internalType": "address",
          "name": "sender",
          "type": "address"
        },
        {
          "indexed": true,
          "internalType": "address",
          "name": "recipient",
          "type": "address"
        },
        {
          "indexed": false,
          "internalType": "uint256",
          "name": "amount",
          "type": "uint256"
        }
      ],
      "name": "Locked",
      "type": "event"
    },
    {
      "inputs": [
        {
          "internalType": "address",
          "name": "recipient",
          "type": "address"
        },
        {
          "internalType": "uint256",
          "name": "amount",
          "type": "uint256"
        }
      ],
      "name": "claim",
      "outputs": [],
      "stateMutability": "nonpayable",
      "type": "function"
    },
    {
      "inputs": [
        {
          "internalType": "address",
          "name": "owner",
          "type": "address"
        }
      ],
      "name": "claimableBalance",
      "outputs": [
        {
          "internalType": "uint256",
          "name": "",
          "type": "uint256"
        }
      ],
      "stateMutability": "view",
      "type": "function"
    },
    {
      "inputs": [
        {
          "internalType": "address",
          "name": "",
          "type": "address"
        }
      ],
      "name": "claimedAmounts",
      "outputs": [
        {
          "internalType": "uint256",
          "name": "",
          "type": "uint256"
        }
      ],
      "stateMutability": "view",
      "type": "function"
    },
    {
      "inputs": [
        {
          "internalType": "address",
          "name": "recipient",
          "type": "address"
        },
        {
          "internalType": "uint256",
          "name": "amount",
          "type": "uint256"
        }
      ],
      "name": "lock",
      "outputs": [],
      "stateMutability": "nonpayable",
      "type": "function"
    },
    {
      "inputs": [
        {
          "internalType": "address",
          "name": "",
          "type": "address"
        }
      ],
      "name": "lockedAmounts",
      "outputs": [
        {
          "internalType": "uint256",
          "name": "",
          "type": "uint256"
        }
      ],
      "stateMutability": "view",
      "type": "function"
    },
    {
      "inputs": [],
      "name": "token",
      "outputs": [
        {
          "internalType": "contract ERC20",
          "name": "",
          "type": "address"
        }
      ],
      "stateMutability": "view",
      "type": "function"
    },
    {
      "inputs": [],
      "name": "unlockBegin",
      "outputs": [
        {
          "internalType": "uint256",
          "name": "",
          "type": "uint256"
        }
      ],
      "stateMutability": "view",
      "type": "function"
    },
    {
      "inputs": [],
      "name": "unlockCliff",
      "outputs": [
        {
          "internalType": "uint256",
          "name": "",
          "type": "uint256"
        }
      ],
      "stateMutability": "view",
      "type": "function"
    },
    {
      "inputs": [],
      "name": "unlockEnd",
      "outputs": [
        {
          "internalType": "uint256",
          "name": "",
          "type": "uint256"
        }
      ],
      "stateMutability": "view",
      "type": "function"
    }
  ],
  "transactionHash": "0x434dd61f2e2fbd79670c4f6f8f7f14cf2696916a8564b9796a13000b8858e2c9",
  "args": [
    "0xC18360217D8F7Ab5e7c516566761Ea12Ce7F9D72",
    1635984000,
    1651622400,
    1762214400
  ],
  "solcInputHash": "663078e3b2c4926632082f376a43cc4a",
  "bytecode": "0x6101006040523480156200001257600080fd5b506040516200111d3803806200111d83398181016040528101906200003891906200014b565b828210156200007e576040517f08c379a000000000000000000000000000000000000000000000000000000000815260040162000075906200022d565b60405180910390fd5b81811015620000c4576040517f08c379a0000000000000000000000000000000000000000000000000000000008152600401620000bb906200020b565b60405180910390fd5b8373ffffffffffffffffffffffffffffffffffffffff1660808173ffffffffffffffffffffffffffffffffffffffff1660601b815250508260a081815250508160c081815250508060e081815250505050505062000389565b6000815190506200012e8162000355565b92915050565b60008151905062000145816200036f565b92915050565b60008060008060808587031215620001685762000167620002b2565b5b600062000178878288016200011d565b94505060206200018b8782880162000134565b93505060406200019e8782880162000134565b9250506060620001b18782880162000134565b91505092959194509250565b6000620001cc6037836200024f565b9150620001d982620002b7565b604082019050919050565b6000620001f36039836200024f565b9150620002008262000306565b604082019050919050565b600060208201905081810360008301526200022681620001bd565b9050919050565b600060208201905081810360008301526200024881620001e4565b9050919050565b600082825260208201905092915050565b60006200026d8262000288565b9050919050565b6000620002818262000260565b9050919050565b600073ffffffffffffffffffffffffffffffffffffffff82169050919050565b6000819050919050565b600080fd5b7f45524332304c6f636b65643a20556e6c6f636b20656e64206d757374206e6f7460008201527f206265206265666f726520756e6c6f636b20636c696666000000000000000000602082015250565b7f45524332304c6f636b65643a20556e6c6f636b20636c696666206d757374206e60008201527f6f74206265206265666f726520756e6c6f636b20626567696e00000000000000602082015250565b620003608162000274565b81146200036c57600080fd5b50565b6200037a81620002a8565b81146200038657600080fd5b50565b60805160601c60a05160c05160e051610d1f620003fe600039600081816101fe015281816104c60152818161052401526107bd01526000818161040e01526105bc0152600081816101da01528181610503015261054f0152600081816102b50152818161066701526107e10152610d1f6000f3fe608060405234801561001057600080fd5b50600436106100935760003560e01c8063904c66ec11610066578063904c66ec14610132578063a8c7a08a14610150578063aad3ec9614610180578063e6e25d101461019c578063fc0c546a146101ba57610093565b8063239fd61114610098578063282d3fdf146100b657806360f3309b146100d257806371417b3214610102575b600080fd5b6100a06101d8565b6040516100ad9190610a0a565b60405180910390f35b6100d060048036038101906100cb919061086f565b6101fc565b005b6100ec60048036038101906100e79190610842565b61040a565b6040516100f99190610a0a565b60405180910390f35b61011c60048036038101906101179190610842565b6105a2565b6040516101299190610a0a565b60405180910390f35b61013a6105ba565b6040516101479190610a0a565b60405180910390f35b61016a60048036038101906101659190610842565b6105de565b6040516101779190610a0a565b60405180910390f35b61019a6004803603810190610195919061086f565b6105f6565b005b6101a46107bb565b6040516101b19190610a0a565b60405180910390f35b6101c26107df565b6040516101cf91906109af565b60405180910390f35b7f000000000000000000000000000000000000000000000000000000000000000081565b7f0000000000000000000000000000000000000000000000000000000000000000421061025e576040517f08c379a0000000000000000000000000000000000000000000000000000000008152600401610255906109ca565b60405180910390fd5b806000808473ffffffffffffffffffffffffffffffffffffffff1673ffffffffffffffffffffffffffffffffffffffff16815260200190815260200160002060008282546102ac9190610a36565b925050819055507f000000000000000000000000000000000000000000000000000000000000000073ffffffffffffffffffffffffffffffffffffffff166323b872dd3330846040518463ffffffff1660e01b81526004016103109392919061094f565b602060405180830381600087803b15801561032a57600080fd5b505af115801561033e573d6000803e3d6000fd5b505050506040513d601f19601f8201168201806040525081019061036291906108af565b6103a1576040517f08c379a0000000000000000000000000000000000000000000000000000000008152600401610398906109ea565b60405180910390fd5b8173ffffffffffffffffffffffffffffffffffffffff163373ffffffffffffffffffffffffffffffffffffffff167f989eaa915cbb416ea3d6f9a63b1a3de51770c7674b11fe21ecdf76b4e1d13910836040516103fe9190610a0a565b60405180910390a35050565b60007f000000000000000000000000000000000000000000000000000000000000000042101561043d576000905061059d565b60008060008473ffffffffffffffffffffffffffffffffffffffff1673ffffffffffffffffffffffffffffffffffffffff1681526020019081526020016000205490506000600160008573ffffffffffffffffffffffffffffffffffffffff1673ffffffffffffffffffffffffffffffffffffffff1681526020019081526020016000205490507f000000000000000000000000000000000000000000000000000000000000000042106105005780826104f79190610b17565b9250505061059d565b807f00000000000000000000000000000000000000000000000000000000000000007f000000000000000000000000000000000000000000000000000000000000000061054d9190610b17565b7f0000000000000000000000000000000000000000000000000000000000000000426105799190610b17565b846105849190610abd565b61058e9190610a8c565b6105989190610b17565b925050505b919050565b60016020528060005260406000206000915090505481565b7f000000000000000000000000000000000000000000000000000000000000000081565b60006020528060005260406000206000915090505481565b60006106013361040a565b90508082111561060f578091505b81600160003373ffffffffffffffffffffffffffffffffffffffff1673ffffffffffffffffffffffffffffffffffffffff168152602001908152602001600020600082825461065e9190610a36565b925050819055507f000000000000000000000000000000000000000000000000000000000000000073ffffffffffffffffffffffffffffffffffffffff1663a9059cbb84846040518363ffffffff1660e01b81526004016106c0929190610986565b602060405180830381600087803b1580156106da57600080fd5b505af11580156106ee573d6000803e3d6000fd5b505050506040513d601f19601f8201168201806040525081019061071291906108af565b610751576040517f08c379a0000000000000000000000000000000000000000000000000000000008152600401610748906109ea565b60405180910390fd5b8273ffffffffffffffffffffffffffffffffffffffff163373ffffffffffffffffffffffffffffffffffffffff167ff7a40077ff7a04c7e61f6f26fb13774259ddf1b6bce9ecf26a8276cdd3992683846040516107ae9190610a0a565b60405180910390a3505050565b7f000000000000000000000000000000000000000000000000000000000000000081565b7f000000000000000000000000000000000000000000000000000000000000000081565b60008135905061081281610ca4565b92915050565b60008151905061082781610cbb565b92915050565b60008135905061083c81610cd2565b92915050565b60006020828403121561085857610857610c27565b5b600061086684828501610803565b91505092915050565b6000806040838503121561088657610885610c27565b5b600061089485828601610803565b92505060206108a58582860161082d565b9150509250929050565b6000602082840312156108c5576108c4610c27565b5b60006108d384828501610818565b91505092915050565b6108e581610b4b565b82525050565b6108f481610b93565b82525050565b6000610907602983610a25565b915061091282610c2c565b604082019050919050565b600061092a601a83610a25565b915061093582610c7b565b602082019050919050565b61094981610b89565b82525050565b600060608201905061096460008301866108dc565b61097160208301856108dc565b61097e6040830184610940565b949350505050565b600060408201905061099b60008301856108dc565b6109a86020830184610940565b9392505050565b60006020820190506109c460008301846108eb565b92915050565b600060208201905081810360008301526109e3816108fa565b9050919050565b60006020820190508181036000830152610a038161091d565b9050919050565b6000602082019050610a1f6000830184610940565b92915050565b600082825260208201905092915050565b6000610a4182610b89565b9150610a4c83610b89565b9250827fffffffffffffffffffffffffffffffffffffffffffffffffffffffffffffffff03821115610a8157610a80610bc9565b5b828201905092915050565b6000610a9782610b89565b9150610aa283610b89565b925082610ab257610ab1610bf8565b5b828204905092915050565b6000610ac882610b89565b9150610ad383610b89565b9250817fffffffffffffffffffffffffffffffffffffffffffffffffffffffffffffffff0483118215151615610b0c57610b0b610bc9565b5b828202905092915050565b6000610b2282610b89565b9150610b2d83610b89565b925082821015610b4057610b3f610bc9565b5b828203905092915050565b6000610b5682610b69565b9050919050565b60008115159050919050565b600073ffffffffffffffffffffffffffffffffffffffff82169050919050565b6000819050919050565b6000610b9e82610ba5565b9050919050565b6000610bb082610bb7565b9050919050565b6000610bc282610b69565b9050919050565b7f4e487b7100000000000000000000000000000000000000000000000000000000600052601160045260246000fd5b7f4e487b7100000000000000000000000000000000000000000000000000000000600052601260045260246000fd5b600080fd5b7f546f6b656e4c6f636b3a20556e6c6f636b20706572696f6420616c726561647960008201527f20636f6d706c6574650000000000000000000000000000000000000000000000602082015250565b7f546f6b656e4c6f636b3a205472616e73666572206661696c6564000000000000600082015250565b610cad81610b4b565b8114610cb857600080fd5b50565b610cc481610b5d565b8114610ccf57600080fd5b50565b610cdb81610b89565b8114610ce657600080fd5b5056fea26469706673582212202e966fc63dd1e9f2534cbcfed6906b70e38e97256d27ebf82b4d102e6228a51764736f6c63430008070033",
  "devdoc": {
    "details": "Time-locks tokens according to an unlock schedule.",
    "kind": "dev",
    "methods": {
      "claim(address,uint256)": {
        "details": "Claims the caller's tokens that have been unlocked, sending them to `recipient`.",
        "params": {
          "amount": "The amount to transfer. If greater than the claimable amount, the maximum is transferred.",
          "recipient": "The account to transfer unlocked tokens to."
        }
      },
      "claimableBalance(address)": {
        "details": "Returns the maximum number of tokens currently claimable by `owner`.",
        "params": {
          "owner": "The account to check the claimable balance of."
        },
        "returns": {
          "_0": "The number of tokens currently claimable."
        }
      },
      "constructor": {
        "details": "Constructor.",
        "params": {
          "_token": "The token this contract will lock.l",
          "_unlockBegin": "The time at which unlocking of tokens will be gin.",
          "_unlockCliff": "The first time at which tokens are claimable.",
          "_unlockEnd": "The time at which the last token will unlock."
        }
      },
      "lock(address,uint256)": {
        "details": "Transfers tokens from the caller to the token lock contract and locks them for benefit of `recipient`.      Requires that the caller has authorised this contract with the token contract.",
        "params": {
          "amount": "The number of tokens to transfer and lock.",
          "recipient": "The account the tokens will be claimable by."
        }
      }
    },
    "version": 1
  },
  "userdoc": {
    "kind": "user",
    "methods": {},
    "version": 1
  },
  "storageLayout": {
    "storage": [
      {
        "astId": 12041,
        "contract": "contracts/TokenLock.sol:TokenLock",
        "label": "lockedAmounts",
        "offset": 0,
        "slot": "0",
        "type": "t_mapping(t_address,t_uint256)"
      },
      {
        "astId": 12045,
        "contract": "contracts/TokenLock.sol:TokenLock",
        "label": "claimedAmounts",
        "offset": 0,
        "slot": "1",
        "type": "t_mapping(t_address,t_uint256)"
      }
    ],
    "types": {
      "t_address": {
        "encoding": "inplace",
        "label": "address",
        "numberOfBytes": "20"
      },
      "t_mapping(t_address,t_uint256)": {
        "encoding": "mapping",
        "key": "t_address",
        "label": "mapping(address => uint256)",
        "numberOfBytes": "32",
        "value": "t_uint256"
      },
      "t_uint256": {
        "encoding": "inplace",
        "label": "uint256",
        "numberOfBytes": "32"
      }
    }
  }
}